:020000040800F2
:10000000804000209D0100084F4A0008D3380008B6
:100010004D4A0008011600080950000800000000C1
:1000200000000000000000000000000005010008C2
:10003000411C00080000000049010008AD4B000809
:10004000B7010008B7010008B7010008B7010008B0
:10005000B7010008B7010008B7010008B7010008A0
:10006000B7010008B7010008B7010008B701000890
:10007000B7010008B7010008B7010008B701000880
:10008000B7010008B7010008B7010008B701000870
:10009000B7010008B7010008B7010008B701000860
:1000A000B7010008B7010008B7010008B701000850
:1000B000B7010008B7010008B7010008B701000840
:1000C000B7010008B7010008B7010008B701000830
:1000D000B7010008B7010008B7010008B701000820
:1000E000B7010008B7010008B7010008DFF810D019
:1000F00000F0DEFC00480047DD670008AFF3008039
:1001000080400020224B19680868B0E8F00F80F3A7
:100110000988BFF36F8F4FF0000080F311884EF015
:100120000D0E70470000000006480068006880F36C
:10013000088862B661B6BFF34F8FBFF36F8F00DFE1
:1001400000BF00BF08ED00E0EFF30980BFF36F8F41
:100150000F4B1A6820E9F00F106008B54FF05000FF
:1001600080F31188BFF34F8FBFF36F8F06F020FF2E
:100170004FF0000080F31188BDE808401968086856
:10018000B0E8F00F80F30988BFF36F8F704700BFAE
:10019000C8000020EFF30580704700000648804744
:1001A00006480047FEE7FEE7FEE7FEE7FEE7FEE75C
:1001B000FEE7FEE7FEE7FEE7234C0008ED0000083F
:1001C000202A04DB203A21FA02F00021704721FAAC
:1001D00002F3D040C2F12002914008431946704713
:1001E000D2B201E000F8012B491EFBD27047002279
:1001F000F6E710B513460A4604461946FFF7F0FF26
:10020000204610BD0022CBB20178994200D10246AF
:10021000401C0029F8D110467047F0B480EA010272
:10022000D40F4200B2EB410F02D2024608461146FB
:100230004A0042D0C30DDDB2C1F3C752AD1A202D22
:1002400035DAC1F3160141F4000204B15242C5F19E
:10025000200602FA06F12A411044B3EBD05F23D006
:10026000C4B1012DA0EBC35009DCF0BC4FF000423B
:1002700002EAC352DBB200F5000000F047BB4000C9
:1002800000F1807000EBC350A0F1807040EAD170A3
:10029000490009E0490841EAC071A0EBC35000F5EC
:1002A0000000400800EBC350F0BC00F026BB6142E8
:1002B000012202EB4101001BF6E7F0BC704781F020
:1002C0000041AAE780F00040A7E780EA010210B5EC
:1002D00002F00043400022D04A001FD0010E01EB83
:1002E0001261C0F35600C2F3560240F4000042F41B
:1002F0000002A0FB022000047F39140400D0401C3F
:1003000050EA124001D44000491EC2B20C0604EB70
:10031000D010401C4008802A02D003E0002010BD0D
:1003200020F00100002900DA0020184310BD30B48D
:1003300080EA010202F0004530F0004221F0004066
:1003400013D090B1C30DD40DC2F31601C0F3160043
:10035000E41A41F4000140F400027D34914201D3DB
:10036000641C00E04900002C02DA30BC0020704719
:100370004FF400000023914201D3891A034340083F
:100380004FEA4101F7D151B1914202D14FF0004102
:1003900005E002D24FF0010101E06FF0010103EB33
:1003A000C450284430BC00F0A8BA420005D0C0F3C5
:1003B000C7525242914201DC0020704700EBC1500D
:1003C00070472DE9FE4F804681EA0300C00F0C46BE
:1003D000009021F0004123F00045B8EB0200A94154
:1003E00005D24046214690461C460B46024623F065
:1003F0000040104347D0270DC7F30A00C3F30A514A
:100400000290401A019040286BDAC3F3130040F4C5
:10041000801B0098924620B10023D2EB030A63EBC5
:100420000B0B01985946C0F14002504600F044FAC7
:1004300006460D4650465946019A00F04CFA10EB1C
:1004400008006141002487EA115284EAE7731A43E5
:1004500040D0009A62B3019A012A4FEA075215DC94
:10046000001B61EB02014FF0004202EA0752CDE9A6
:100470000042001C41F5801132462B4600F083FA01
:1004800003B0BDE8F08F40462146F9E7001B61EB61
:100490000201001C41F5801300185B412018A2F5F1
:1004A000001747EB030140EAD570B6196D4111E022
:1004B0006D084FEA360645EAC0754FEA0752001B41
:1004C00061EB0201001C41F5801149084FEA300040
:1004D0000019514132462B4603B0BDE8F04F00F001
:1004E00043BA0098012240000023D0EB020263EBE4
:1004F000E073009821464FEAE074B8EB000061EB2E
:100500000401E9E783F000435BE781F0004158E72D
:100510002DE9FE4F81EA030404F0004421F000417C
:1005200000944FF0000B23F0004350EA01045ED02A
:1005300052EA03045BD0C3F30A54C1F30A552C44B6
:10054000A4F2F3340194A0FB0254C1F3130141F46B
:100550008011C3F3130343F4801301FB024400FB37
:10056000034E840A970A44EA815447EA8357A4FB5E
:10057000076802958D0A05FB07854FEA932C04FB5B
:100580000C542705029D4FEA065847EA1637B5EB8B
:1005900008056EEB070C870E920E47EA811742EAB8
:1005A0008312A7FB0201B6EB0B0164EB00042B0DD9
:1005B00043EA0C335E1844EB1C50DA465146E7FB25
:1005C0000201C5F313044FEA0B3343EA14534FEA15
:1005D0000432019C43EA0603A4F10C040294009C3B
:1005E000CDE900B400F0CFF903B0BDE8F08F0020F2
:1005F0000146F9E72DE9F04D81EA030404F0004BD0
:1006000021F0004514464FF0000A23F0004150EA63
:10061000050220D054EA01021DD0C5F30A57024654
:10062000C5F31303C1F31300C1F30A5640F4801558
:1006300043F48013A7EB0608101BD64608F2FD38DA
:1006400073EB050002D308F1010801E092185B4149
:10065000B8F1000F03DA00200146BDE8F08D00205C
:100660004FF48011064684460EE0171B73EB050716
:1006700005D3121B63EB050306434CEA010C490842
:100680004FEA300092185B4150EA0107EDD152EA7F
:10069000030012D082EA040083EA0501084305D072
:1006A000101BAB4106D20122002306E000224FF0CE
:1006B000004302E06FF0010253101AEB06004CEB0E
:1006C000085110EB0A0041EB0B01BDE8F04D00F0C2
:1006D0004BB9C10F80EAE0700844CA079623002195
:1006E00000F014B996230022114600F00FB90EB5A0
:1006F000C10F80EAE0700844CA07002140F233438A
:100700008DE80E000A460B4600F03DF903B000BD2F
:100710000EB540F2334102910021CDE900110A46A5
:100720000B4600F030F903B000BD00F0004220F0AD
:100730000040C10DC0F3160040F400007F2901DA2B
:1007400000207047962903DCC1F19601C84001E002
:1007500096398840002AF4D04042704770B5C1F302
:100760000A5201F000450024C1F3130140F2FF33A7
:1007700041F480119A4201DA002070BD40F2334307
:100780009A42A2F2334203DC5242FFF719FD00E025
:1007900090402C43F1D0404270BDC1F30A5210B5D5
:1007A000C1F3130140F2FF3341F480119A4201DAA0
:1007B000002010BD40F233439A42A2F2334203DCE0
:1007C0005242FFF7FDFC10BD904010BD00F000420A
:1007D00030F000400AD0C10D01F56071C0F3160081
:1007E00042EA0151C2084007114370470020014608
:1007F000704701F0004330B421F0004150EA01029B
:1008000006D00A0DA2F56072C1F31301002A02DCC2
:1008100030BC00207047440F44EAC104C100E01816
:1008200030BC00EBC25000F068B830B50B46014652
:1008300000202022012409E021FA02F59D4205D37F
:1008400003FA02F5491B04FA02F52844151EA2F129
:100850000102F1DC30BD2DE9F05F05460020924633
:100860009B4688460646814640241BE02846414672
:1008700047462246FFF7A4FC53465A46C01A914108
:1008800010D311461846224600F016F82D1A67EBD1
:1008900001084F4622460120002100F00DF817EB19
:1008A00000094E41201EA4F10104DFDC4846314618
:1008B0002A464346BDE8F09F202A04DB203A00FA8E
:1008C00002F1002070479140C2F1200320FA03F3A7
:1008D000194390407047202A06DBCB17203A41FA93
:1008E00002F043EAE07306E041FA02F3D040C2F1BD
:1008F000200291400843194670470029A8BF70475D
:10090000401C490008BF20F00100704710B4B0FA45
:1009100080FC00FA0CF050EA010404BF10BC7047E0
:1009200049B1CCF1200421FA04F411FA0CF118BFFA
:10093000012121430843A3EB0C01CB1D4FEA0061C9
:100940004FEA102042BF002010BC704700EBC3509C
:1009500010440029A4BF10BC7047401C490008BFC8
:1009600020F0010010BC704710B5141E73F1000494
:1009700008DA401C41F1000192185B411A4301D191
:1009800020F0010010BD2DE9F04D92469B4611B1BB
:10099000B1FA81F202E0B0FA80F220329046FFF71D
:1009A0008BFF04460F4640EA0A0041EA0B0153461A
:1009B0005A46084313D0114653EA010019D0C8F132
:1009C00040025046FFF7FCFB05460E46504659468E
:1009D0004246FFF771FF084305D0012004E020469E
:1009E0003946BDE8F08D0020054346EAE0762C4309
:1009F00037430A986305E40AA0EB08000022FD0AC9
:100A000044EA47540A3002D500200146E9E70105CF
:100A100010196941DDE9084500196941BDE8F04D4B
:100A2000A2E770B521F0004303430CD0C1F30A558F
:100A30000024D5EB040564EB0403D617AD1AB341CB
:100A400002DB0020014670BD201841EB025170BD51
:100A5000C1F30A52C1F3130140F2FF3341F4801194
:100A60009A4202DA00200146704740F233439A422C
:100A7000A2F2334202DC5242FFF7A2BBFFF71CBFD7
:100A800030B5041E71F1000404DB4FF00044404215
:100A900064EB0101141E73F1000405DB1C464FF0EA
:100AA0000043524263EB0403994208BF904230BDB9
:100AB000064C074D06E0E06840F0010394E80700AB
:100AC00098471034AC42F6D3FFF714FB6874000863
:100AD000887400082DE9F04D00231A461B1A8A413C
:100AE00003DB00200146BDE8F08DC1F30A52C1F3DB
:100AF000130141F480154FF0000BD10702D100180B
:100B00006D41521E0027044640F2FF11384601EBAA
:100B1000620A3E468046024600204FF48011FFF7ED
:100B20004FFBC2197141BB1846EB0100B4EB030C3B
:100B300075EB000C04D3E41A65EB000517460E466E
:100B4000241908F101006D4180463428E3DDF919CC
:100B500046EB0600091BA84103D24FF0FF321346B3
:100B600001E0002213461BEB070046EB0A51BDE8EB
:100B7000F04DFFF7F9BE70B58C1810F8015B15F059
:100B8000070301D110F8013B2A1106D110F8012BFF
:100B900003E010F8016B01F8016B5B1EF9D12B0724
:100BA00005D40023521E0DD401F8013BFAE710F8DA
:100BB000013BCB1A921C03E013F8015B01F8015BC7
:100BC000521EF9D5A142D8D3002070BD0849002893
:100BD00009D00878401CC0B20870C82806D3C820C5
:100BE000087002207047002008707047002070478E
:100BF0005002002010B506F013F9224803F0E2FC81
:100C0000044606F01BF9012C04D01E480178112976
:100C100008D101E0022010BD4178222902D181785B
:100C2000332901D0022010BD42790179164C42EAE5
:100C300001212180C179827941EA02216180417AD2
:100C4000027A41EA0221A180C17A827A41EA022134
:100C5000E180017B2181407B68B10C48007800F085
:100C600019F840B9608940B100206081012806D0A0
:100C7000022007490870002010BD0120F5E7002080
:100C8000F7E700005C37002048040020180000202F
:100C90001A000020F0B52A4D02242A4B00222A49CE
:100CA000002804D0CA705A812C700220F0BD25485B
:100CB000CE784FF47077B0F90000052E28D2DFE827
:100CC00006F0030A161B2B004A708A70B8421FDB1D
:100CD0000120C8701CE0B84207DB4878401CC0B255
:100CE0004870C82814D3CC7012E0CA7010E01428E1
:100CF0000EDC0320C8700BE0142808DC8878401C48
:100D0000C0B28870C82803D30420C87000E0CA703D
:100D10005A812C700220F0BD14280EDCB3F90200B9
:100D2000B0F5167F00DBCA704868401C4860B0F51B
:100D3000FA6F03D3CA704A6000E04A600020F0BD39
:100D40001A000020480400205002002010B55C2149
:100D500030A0FFF757FA28B15C212EA0FFF752FA16
:100D6000401C00E02BA001460A2235A004F02EFC16
:100D70005C2128A0FFF746FA28B15C2125A0FFF7E7
:100D800041FA401C00E023A001460C2236A004F0EA
:100D90001DFC4FF4FA7402E0204600F065FF03F0FA
:100DA00073FB0128F8D05C211AA0FFF72BFA28B1B9
:100DB0005C2118A0FFF726FA401C00E015A00146B0
:100DC000112232A004F002FC5C2112A0FFF71AFAF3
:100DD00028B15C210FA0FFF715FA401C00E00DA020
:100DE0000146132232A004F0F1FB03F079FB5C21F1
:100DF00008A0FFF707FA28B15C2106A0FFF702FA66
:100E0000401C00E003A00146BDE81040162231A0BE
:100E100004F0DCBB2E2E5C4170705C636F6D6D75F1
:100E20006E69636174696F6E5C4170705F636F6D52
:100E30006D756E69636174696F6E2E6300000000EA
:100E40005B253135733A2534645D202D2D20CDA8E6
:100E5000D1B6C4A3BFE9B5C4C6F4B6AF2D2DBFAAA1
:100E6000CABC0D0A000000005B253135733A2534F9
:100E7000645D202D2D20322E3447C4A3BFE9D7D482
:100E8000BCEC2D2DBFAACABC0D0A00005B25313574
:100E9000733A2534645D202D2D20322E3447C4A3AF
:100EA000BFE9D7D4BCEC2D2DBDE1CAF80D0A000076
:100EB0005B253135733A2534645D202D2D20322E8B
:100EC0003447C9E8D6C3CEAABDD3CAD5C4A3CABDC8
:100ED0000D0A00005B253135733A2534645D202D01
:100EE0002D20CDA8D1B6C4A3BFE9B5C4C6F4B6AF12
:100EF0002D2DBDE1CAF80D0A0000000070B50446B2
:100F000005F08EFF204603F015FA05F097FF214DFE
:100F1000B4F90000B5F9001000F0DEFB2080B5F94F
:100F20000210B4F9020000F0D7FB6080B5F904109C
:100F3000B4F9040000F0D0FBA080218829806188EA
:100F40006980A880B4F90600FFF7D1FB02460B4682
:100F5000114800F0E1FBFFF701FCE080B4F9080064
:100F6000FFF7C5FB02460C480B46183000F0D4FBD7
:100F7000FFF7F4FB2081B4F90A00FFF7B8FB024643
:100F800005480B46303000F0C7FBFFF7E7FB6081F8
:100F900070BD0000280100202C00002000F0FABBEA
:100FA00010B503F071FB0F4C6188421A02F5FA721A
:100FB000B2F57A7F0CD80C4AB2F90430A3F5C873A5
:100FC000C82B05D8B2F90620A2F5C872C82A01D9E3
:100FD000084610BD09B200B200F07EFB80B260800E
:100FE00010BD00001C010020480400202DE9F0473E
:100FF00005468A461446444F002D06D1B86810F0C5
:10100000FF4F02D100F014FEB8603F4E3878EC3646
:1010100000213E4B06F12408002860D002253C4AFE
:10102000012866D0022862D1B2F90000B7F804C0E6
:10103000A0EB0C006430C82861D8508900285ED02D
:101040007878401CC0B27870052850D37970314947
:101050002046FFF73AF981464846FFF7B7FB0446BA
:101060000D465046FFF73EFB8246F169FFF727F930
:10107000FFF7ACFB284A294BFFF74AFA22462B46DA
:10108000FFF7B8FA04460D4600F0D2FDB968FFF745
:1010900016F94946FFF719F9D8F81C10FFF7BDF803
:1010A000FFF794FB1E4A1F4BFFF732FA22462B46EE
:1010B000FFF787F9FFF79DFB0446F888FFF712FB5F
:1010C000B061C6F81CA0C6F80C90C8F81C40C8F85F
:1010D0000C9041463046BDE8F04700F092BA3162CC
:1010E000C8F820101878054301D101203870BDE8F8
:1010F000F0871088B880A7F806A03D70F7E7397030
:1011000051811D70F3E700001C0100201A0000202F
:10111000480400200000A0409A9999999999B93FF4
:10112000CDCCCCCCCCCCEC3F10B50F480F49006AED
:10113000884201DB084603E00D49884200D3084697
:10114000FFF7F3FA0B4A5188014451800A494A8853
:1011500002444A8009494A8802444A8008494A8828
:101160001044488010BD00002C02002000001643EF
:10117000000016C31C0000202000002024000020D6
:10118000280000202DE9F0412648B0F90000FFF7C3
:10119000AEFA4FF06632244BFFF7BAF9FFF7DEFAEA
:1011A00000B2FFF796FA214907460C6A2146FFF77D
:1011B00034F81E49804648390D6A2946FFF72DF854
:1011C0001A4948310E6A3146FFF727F8FFF7ADFAA2
:1011D0001749488040462946FFF771F83146FFF726
:1011E0006EF8FFF7A2FA1349488038462146FFF708
:1011F00066F804462946FFF710F83146FFF75FF816
:10120000FFF793FA0C49488020462946FFF757F824
:101210003146FFF702F8FFF788FA08494880BDE831
:10122000F0810000480400206666E63F9C01002033
:101230001C000020200000202400002028000020A6
:101240002DE9F05F05460E4614463B4FFC60DFF883
:10125000EC90B9F90400A0F5FA70FFF748FADFF84E
:10126000E0A0DFF8E0B052465B46FFF751F9FFF728
:10127000C0FAB8613068F86107F12408C8F80C407A
:10128000B5F90200FFF725FA2F4F3968FFF71DF86F
:10129000C8F81C004146284800F0B3F908F12408BA
:1012A000C8F80C40B9F90600A0F5FA70FFF71FFA6C
:1012B00052465B46FFF72CF9FFF79BFAC8F8180077
:1012C0007068C8F81C0008F12408C8F80C40B5F98B
:1012D0000000FFF7FEF93968FEF7F7FFC8F81C00B9
:1012E0004146A1F1240000F08CF908F12408C8F867
:1012F0000C40B9F90200A0F5FA70FFF7F8F9524670
:101300005B46FFF705F9FFF774FAC8F81800B068F4
:10131000C8F81C0008F12406F460B5F90400FFF7D2
:10132000D8F93968FEF7D1FFF06131464046BDE893
:10133000F05F00F066B90000300100204804002092
:101340007B14AE47E17AA43F7C00002010B55C21FD
:1013500024A0FEF757FF28B15C2122A0FEF752FF20
:10136000401C00E01FA001461C2225A004F02EF91D
:1013700003F03AF85C211BA0FEF744FF28B15C2182
:1013800018A0FEF73FFF401C00E016A001461E22F9
:1013900024A004F01BF95C2112A0FEF733FF28B152
:1013A0005C2110A0FEF72EFF401C00E00DA00146BE
:1013B000212225A004F00AF902F03EFF5C2109A0D9
:1013C000FEF720FF28B15C2106A0FEF71BFF401CA2
:1013D00000E004A00146BDE81040232223A004F051
:1013E000F5B800002E2E5C4170705C666C69676811
:1013F000745C4170705F466C696768742E630000AE
:101400005B253135733A2534645D202D2D20B3F5ED
:10141000CABCBBAFB5E7BBFA2D2DBFAACABC0D0A2B
:10142000000000005B253135733A2534645D202DC2
:101430002D20B3F5CABCBBAFB5E7BBFA2D2DBDE17E
:10144000CAF80D0A000000005B253135733A2534D7
:10145000645D202D2D20B3F5CABCBBAF4D50553671
:101460003035302D2DBFAACABC0D0A005B253135A1
:10147000733A2534645D202D2D20B3F5CABCBBAF73
:101480004D5055363035302D2DBDE1CAF80D0A00CE
:10149000002804D10748B0F900001E2808DC0649DE
:1014A0000020488005494880054948800549488012
:1014B00002F082BF48040020280000202400002001
:1014C000200000201C0000201CB500F003F95C2166
:1014D00024A0FEF797FE28B15C2122A0FEF792FE21
:1014E000401C00E01FA001462B2224A004F06EF84F
:1014F000FFF72CFFFFF72AFC03F0DAF829480A214E
:10150000CDE900100023802227A12A4805F0A2FD82
:1015100001280BD05C2113A0FEF774FE002817D021
:101520005C2110A0FEF76EFE401C12E05C210DA0B5
:10153000FEF768FE28B15C210AA0FEF763FE401C9E
:1015400000E008A001463F221BA004F03FF805E0A0
:1015500004A00146432221A004F038F8BDE81C4055
:1015600005F0F6BC2E2E5C4170705C7461736B5C90
:101570004170705F5461736B2E6300005B253135E1
:10158000733A2534645D202D2D20CEDEC8CBBBFA06
:101590002D2DB7C9BFD8B3F5CABCBBAFBFAACABC53
:1015A0000D0A00000C01002073746172745F746195
:1015B000736B0000656C00085B253135733A253488
:1015C000645D202D2D20C6F4B6AFC8CECEF1B4B4E4
:1015D000BDA8B3C9B9A62E2E2E0D0A005B25313544
:1015E000733A2534645D202D2D20C6F4B6AFC8CEE5
:1015F000CEF1B4B4BDA8CAA7B0DC2E2E2E0D0A00C1
:10160000FEE770B505460C46284600F007F8286A44
:10161000A0612046BDE87040AFF300802DE9F041A5
:101620000446D4E90610FEF74AFE0746394620680C
:10163000FEF74BFE804639466068FEF746FEE568D9
:101640002946FEF742FE2169FEF7E7FD06462061C6
:1016500038466169FEF733FEA168FEF736FE29467B
:10166000FEF765FE0546676131464046FEF7D5FD4B
:101670002946FEF7D2FD2062BDE8F0817FB5B1F9C1
:101680000A20B1F90830B1F90640B1F90450CDE9AA
:101690000054CDE90232B1F90230B1F9002001461F
:1016A00001A003F093FF7FBD25732067783D25647B
:1016B0002C67793D25642C677A3D25642C61783D43
:1016C00025642C61793D25642C617A3D25640D0AE1
:1016D000000000007047000070B50E46FFF707F8E5
:1016E0000A4A0B4BFEF714FF04460D463046FEF740
:1016F000FEFF064A074B921CFEF70AFF22462B46C6
:10170000FEF75FFEFFF72AF800B270BD989999992D
:101710009999C93F9999E93F2DE9F0470446154643
:101720001E4621692068FEF778FD814660604846C4
:101730006169FEF772FD01464846FEF7F8FD8046F6
:10174000E060A068FFF742F88A4607462A4633461B
:10175000FEF7DBFE05460E464046FFF737F82A4601
:101760003346FEF7D5FE3A465346FEF72AFEFFF70C
:1017700040F80546A06041464FF07E50FEF79FFDC1
:101780004946FEF7A2FD20602846BDE8F047FFF776
:101790001DB800002DE9F74F96B004460E464FF0F5
:1017A000FF311898FEF701FE0290FE4DAF68D5F8A4
:1017B000009039464846FEF788FDD5F80CA0D5F8CC
:1017C0000480834651464046FEF77FFD5946FEF7AA
:1017D00076FD0121FEF7E9FD0C9051463846FEF7F3
:1017E00074FD824641464846FEF76FFD5146FEF7BE
:1017F00014FD0121FEF7D9FD0D9039463846FEF75C
:1018000064FD074641464046FEF75FFD3946FEF758
:1018100004FD0121FEF7C9FD4FF07E51FEF752FD98
:101820000E90B4F90A00FEF754FF0146FEF74DFD95
:101830000746B4F90800FEF74CFF0146FEF745FDE8
:101840008046B4F90600FEF744FF0146FEF73DFD71
:101850004146FEF7E2FC3946FEF7DFFC03F0F8F8FC
:101860000746B4F90600FEF734FF3946FEF72DFDB2
:101870000990B4F90800FEF72CFF3946FEF725FD64
:101880000A90B4F90A00FEF724FF3946FEF71DFD61
:101890000B900D990B98FEF718FD0E9907460A98C4
:1018A000FEF713FD3946FEF70AFD03900E990998DD
:1018B000FEF70BFD0C9907460B98FEF706FD39461F
:1018C000FEF7FDFC04900C990A98FEF7FEFC0D99BA
:1018D00007460998FEF7F9FC3946FEF7F0FC05903B
:1018E0000398A5F1200ADAF810108846FEF7EDFCFF
:1018F000DFF8B492D9F80010FEF78FFC8346C9F8E0
:10190000000004984146FEF7E0FCD9F80410FEF709
:1019100084FC0746C9F8040005984146FEF7D5FC4B
:10192000D9F80810FEF779FC8046C9F80800039939
:10193000DAF80C001590FEF7C8FC8146B4F90000F7
:10194000FEF7C7FEDAF808101491FEF7BEFC494610
:10195000FEF763FC5946FEF760FC06900499159863
:10196000FEF7B3FC8146B4F90200FEF7B2FE14990B
:10197000FEF7ABFC4946FEF750FC3946FEF74DFC3E
:10198000079005991598FEF7A0FC0746B4F90400E6
:10199000FEF79FFE1499FEF798FC3946FEF73DFCD2
:1019A0004146FEF73AFC08900899E8681390FEF764
:1019B0008CFC07990746A8681290FEF786FC8046C3
:1019C0006868119080F000400699FEF77EFC414661
:1019D000FEF775FC3946FEF772FC0299FEF775FCBE
:1019E000074608991298FEF770FC079980461398ED
:1019F000FEF76BFC0699814628681090FEF765FC9F
:101A00004946FEF75CFC4146FEF707FC0299FEF7EB
:101A10005CFC804608991198FEF757FC07998346AD
:101A20001098FEF752FC069981461398FEF74DFC7C
:101A30004946FEF7F2FB5946FEF741FC0299FEF7D4
:101A400044FC814608991098FEF73FFC06990090E7
:101A50001298FEF73AFC079983461198FEF735FC79
:101A60005946FEF72CFC0099FEF7D7FB0299FEF7CA
:101A70002CFC834639461098FEF7CFFB07462860BA
:101A800041461198FEF7C9FB8046686049461298A6
:101A9000FEF7C3FB8146A86059461398FEF7BDFBCD
:101AA000E8600146FEF711FC834649464846FEF7CA
:101AB0000CFC814641464046FEF707FC804639460D
:101AC0003846FEF702FC4146FEF7A7FB4946FEF703
:101AD000A4FB5946FEF7A1FB02F0BAFF8146494636
:101AE0002868FEF7F2FB8346286049466868FEF7DF
:101AF000ECFB074668604946A868FEF7E6FB8046AF
:101B0000A8604946E868FEF7E0FB8146E8600121ED
:101B10003846FEF74AFC49460F90FEF7D6FB0546CD
:101B200001215846FEF741FC83464146FEF7CDFBB6
:101B30002946FEF7C4FB019058463946FEF7C5FB1F
:101B4000054601214046FEF730FC83464946FEF734
:101B5000BCFB2946FEF761FB054658464146FEF7A9
:101B6000B4FB804639460F98FEF7AFFB4FF07E512D
:101B7000FEF7A8FB4146FEF7A2FB8146B4F904003C
:101B8000FEF7A7FDDAF80410FEF79FFBB0F17C5FCB
:101B900002DCB0F13F4F0CD91899FEF796FBB16803
:101BA00004E00000980000206C040020FEF735FBE4
:101BB000B060DAF80000FEF709FE07468846019893
:101BC000FEF704FE04F012FA3A464346FEF7A0FC84
:101BD000FEF70FFE30604946284604F03FFBDAF876
:101BE0000010FEF772FB7060B4F90A00FEF771FD99
:101BF0004946FEF76AFB0646B4F90800FEF769FDA0
:101C00002946FEF762FB0546B4F90600FEF761FDC2
:101C10000199FEF75AFB2946FEF7FFFA3146FEF717
:101C2000FCFAFEF7D3FDCAE9060119B0BDE8F08F52
:101C30000249D1E90601FEF7DCBD00007800002072
:101C40007047000001B582B04FF4FA6000900123A4
:101C500001AA02A9024801F041FA9DF804000EBD54
:101C60001803002072B6FEE770B5044600F016F9BE
:101C70000546601C02D004480078044400F00EF9C8
:101C8000401BA042FAD370BD000000202DE9F84FA0
:101C900000240023DFF8C4914FF00F08A9F1040BD2
:101CA00009F1040AABF1040ED1E00127A7403A4044
:101CB000BA4275D1DFF8A8C14D68A5EB0C066545A1
:101CC0002BD00DDC032D34D005DC35B3012D19D01C
:101CD000022D2FD11BE0112D16D0122D2AD119E083
:101CE000B6F5881F19D006DCB6F5803F15D0B6F5DD
:101CF000801F1FD111E0B6F5001F0ED0B6F5041FEE
:101D000018D10AE0CB6815E0CB681B1D12E0CB6848
:101D100008330FE0CB680C330CE08B6823B1012B48
:101D200004D00823476105E0042303E0082307618A
:101D300000E00023FF2A01D8054601E000F1040578
:101D400002D84FEA840603E0A4F108064FEA8606AB
:101D50002F6808FA06FC27EA0C0703FA06F647EA9A
:101D600006072F604D68ED0070D53E4DAE6946F018
:101D70000106AE61AD6905F0010500953A4D24F00C
:101D800003067719BE68A5072D0F08FA05FC26EA99
:101D90000C06DFF8D8C0604503D14FF0000C17E007
:101DA00054E0DFF8CCC0604502D14FF0010C0FE0E9
:101DB000DFF8C0C0604502D14FF0020C08E0DFF848
:101DC000B8C0604502D14FF0030C01E04FF0040CA5
:101DD0000CFA05FC4CEA060CC7F808C04D68ED0289
:101DE00005D5D9F800501543C9F8005004E0D9F8DA
:101DF00000509543C9F800504D68AD0205D5DAF89A
:101E000000501543CAF8005004E0DAF8005095433A
:101E1000CAF800504D68AD0305D5DBF800501543F6
:101E2000CBF8005004E0DBF800509543CBF80050AD
:101E30004D68ED0305D5DEF800501543CEF800508F
:101E400004E0DEF800509543CEF80050641C0A68A8
:101E500032FA04F57FF429AFBDE8F88F0804014099
:101E60000000111000100240000001400008014075
:101E7000000C01400010014000140140C26821EA3A
:101E800002030A4043EA024101617047002A01D07F
:101E900001617047090401617047000001488068D2
:101EA000704700000000002070B50446002C04D0EC
:101EB00094F83D00002510B106E0012070BD84F8C3
:101EC0003C50204600F0E6FC242084F83D002068C9
:101ED000016821F0010101602068016841F40041BE
:101EE00001602068016821F40041016000F05AFEA1
:101EF0004F4B6168994203D84E49884203D304E0AE
:101F00004D49884201D2012070BD4C49B0FBF1F12E
:101F10002268566826F03F060E43566062689A4271
:101F200001D8491C07E04FF4967251434FF47A727E
:101F3000B1FBF2F1491C2268166A26F03F063143D4
:101F400011626168994210D84900401EB0FBF1F25D
:101F5000521CC2F30B02042A01D2042022E0B0FB7F
:101F6000F1F0401CC0F30B001CE0A268F2B301EBDF
:101F7000C10303EB0116431EB3FBF6F35B1C43F4F2
:101F800080431B0549D092B301EBC10202EB011162
:101F9000401EB0FBF1F0401CC0F30B0040F4804049
:101FA00040F400402168CA694CF6FF739A4310431D
:101FB000C861D4E9071001432068026822F0C0021A
:101FC00011430160D4E9030101432068826848F2AB
:101FD000FF339A4311438160D4E90510014320681F
:101FE000C26822F0FF021143C16001E00EE016E07A
:101FF0002068016841F0010101602564202084F817
:102000003D00256384F83E50002070BD01EB410681
:10201000431EB3FBF6F35B1CB3E70120C2E701EB01
:102020004101401EB0FBF1F0401CC0F30B00B7E7CC
:10203000A086010080841E0000093D0040420F0080
:102040002DE9FC470446DDF828908A461746984655
:1020500000260196FFF722FF054694F83D00202850
:1020600002D00220BDE8FC8719230122A84920469E
:10207000009501F057FE08B10220F3E794F83C0008
:10208000012807D0012084F83C0020680168C907B6
:1020900002D005E00220E5E7016841F0010101609E
:1020A0002068016821F400610160222084F83D006D
:1020B000102084F83E0026646762A4F82A80608DB0
:1020C00020859448E0622B464A465146204601F05E
:1020D00019FC08B10120C5E7208D80B1012817D077
:1020E000022825D02068016841F4806101602068E1
:1020F0004169806900902027DFF81C82FFE020689A
:10210000416981690091016841F400710160F2E761
:102110002068016821F48061016072B6206841691D
:1021200081690091016841F40071016062B6E2E7E3
:102130002068016841F40061016072B6206841695D
:1021400081690091016821F48061016062B6D2E783
:1021500003287DD801280BD002281FD04B4600222F
:1021600041462046009501F0DDFDE8B3012079E706
:102170002A464946204601F08FFE08B1012071E74A
:1021800020680069616A0870606A401C6062208D86
:10219000401E2085608D401E6085B0E04B460022C9
:1021A00041462046009501F0BDFD08B1012059E7E8
:1021B00072B62068016841F400710160206800690E
:1021C000616A0870606A401C6062218D491E218529
:1021D000618D491E618562B6216809690170606A76
:1021E000401C6062208D00E005E0401E2085608D6F
:1021F000401E608583E02068016821F480610160F1
:1022000072B620680069616A0870606A401C60628A
:10221000208D401E2085608D401E60853F4846F21F
:10222000A8110068B0FBF1F0C0EBC00000EB80002B
:1022300001900198401E0190019830B320684069D8
:10224000C0434007F5D42068016841F4007100E004
:1022500027E0016020680069616A0870606A401CBC
:102260006062218D491E2185618D491E618562B69E
:10227000216809690170606A401C6062208D401EFF
:102280002085608D401E608539E044F8306F6773AB
:10229000A673206940F02000206162B626730120F9
:1022A000E0E62A464946204601F0F6FD08B1012045
:1022B000D8E620680069616A0870606A401C606244
:1022C000208D401E81B22185608D401E6085206872
:1022D0004269D243520712D4032903D1016821F481
:1022E0008061016020680069616A0870606A401C52
:1022F0006062208D401E2085608D401E6085208D8F
:1023000000287FF425AF3C346770A6702670A9E6DC
:10231000020010000000FFFF040001000C0000207C
:102320002DE9F84F04468A4615469946DDF828807F
:10233000FFF7B4FD064694F83D00202802D00220A5
:10234000BDE8F88F1923012245492046009601F087
:10235000E9FC08B10220F3E794F83C00012807D01B
:10236000012084F83C0020680168C90702D005E01C
:102370000220E5E7016841F0010101602068016881
:1023800021F400610160212084F83D00102084F8D0
:102390003E00002727646562A4F82A90608D20859E
:1023A0003048E062334642465146204601F034FB55
:1023B00008B10120C4E720684169806900903EE0CF
:1023C00032464146204601F0A2FD48B1206C042867
:1023D00004D12068016841F4007101600120AFE779
:1023E000606A216800780861656A6D1C6562608DAD
:1023F000401E6085208D401E80B220852268516974
:10240000C94349070BD450B128781061606A401C59
:102410006062608D401E6085208D401E20853246A2
:102420004146204601F052FC48B1206C042804D1FA
:102430002068016841F400710160012080E7208D6F
:102440000028BDD11F3454F81F0C016841F40071FD
:1024500001602020A077E7776777002070E7000011
:10246000020010000000FFFF2DE9FF4F83B004467B
:10247000DDE91198109F8A46934600260296FFF7E1
:102480000DFD054694F83D00202803D0022007B03A
:10249000BDE8F08F19230122A9492046009501F0DB
:1024A00041FC08B10220F2E794F83C00012807D073
:1024B000012084F83C0020680168C90702D005E0CB
:1024C0000220E4E7016841F0010101602068016831
:1024D00021F400610160222084F83D00402084F84E
:1024E0003E0026646762A4F82A90608D2085954896
:1024F000E062CDE900855A4651462046069B01F030
:10250000E3FA08B10120C2E7208D80B1012817D07D
:10251000022825D02068016841F4806101602068AC
:102520004169806901902027DFF81C92FFE0206854
:10253000416981690191016841F400710160F2E72C
:102540002068016821F48061016072B620684169E9
:1025500081690191016841F40071016062B6E2E7AE
:102560002068016841F40061016072B62068416929
:1025700081690191016821F48061016062B6D2E74E
:1025800003287DD801280BD002281FD04346002203
:1025900049462046009501F0C5FBE8B3012076E7E7
:1025A0002A464146204601F077FC08B101206EE73B
:1025B00020680069616A0870606A401C6062208D52
:1025C000401E2085608D401E6085B0E0434600229D
:1025D00049462046009501F0A5FB08B1012056E7C9
:1025E00072B62068016841F40071016020680069DA
:1025F000616A0870606A401C6062218D491E2185F5
:10260000618D491E618562B6216809690170606A41
:10261000401C6062208D00E005E0401E2085608D3A
:10262000401E608583E02068016821F480610160BC
:1026300072B620680069616A0870606A401C606256
:10264000208D401E2085608D401E60853F4846F2EB
:10265000A8110068B0FBF1F0C0EBC00000EB8000F7
:1026600002900298401E0290029830B320684069A0
:10267000C0434007F5D42068016841F4007100E0D0
:1026800027E0016020680069616A0870606A401C88
:102690006062218D491E2185618D491E618562B66A
:1026A000216809690170606A401C6062208D401ECB
:1026B0002085608D401E608539E044F8306F677377
:1026C000A673206940F02000206162B626730120C5
:1026D000DDE62A464146204601F0DEFB08B1012036
:1026E000D5E620680069616A0870606A401C606213
:1026F000208D401E81B22185608D401E608520683E
:102700004269D243520712D4032903D1016821F44C
:102710008061016020680069616A0870606A401C1D
:102720006062208D401E2085608D401E6085208D5A
:1027300000287FF425AF3C346770A6702670A6E6AB
:10274000020010000000FFFF040001000C00002048
:102750002DE9FF4F83B00446DDE911988A46934680
:10276000109DFFF79BFB064694F83D00202803D000
:10277000022007B0BDE8F08F19230122434920460B
:10278000009601F0CFFA08B10220F2E794F83C007D
:10279000012807D0012084F83C0020680168C9079F
:1027A00002D005E00220E4E7016841F00101016088
:1027B0002068016821F400610160212084F83D0057
:1027C000402084F83E00002727646562A4F82A9020
:1027D000608D20852E48E062CDE900865A4651463C
:1027E0002046069B01F010FA80B30120C1E7324673
:1027F0004146204601F08BFB48B1206C042804D1EF
:102800002068016841F4007101600120B1E7606A4D
:10281000216800780861656A6D1C6562208D401E24
:1028200080B22085618D491E618523685969C9433D
:1028300049070BD450B128781861606A401C606267
:10284000208D401E2085608D401E6085208D0028D3
:10285000CDD132464146204601F038FA48B1206CCD
:10286000042804D12068016841F40071016001204E
:102870007FE71F3454F81F0C016841F400710160B8
:102880002020A077E7776777002072E7020010002A
:102890000000FFFF30B585B0002101910291039146
:1028A00004911E4D01681E4C122203231D48A942AB
:1028B00018D1A16941F00801A161A16901F00801E5
:1028C0000091C02101910292049301A9FFF7DEF962
:1028D000E06940F40010E061E06900F4001000904D
:1028E00005B030BD104DA942FAD1A16941F00801EF
:1028F000A161A16901F0080100914FF440610191CB
:102900000292049301A9FFF7C1F9E06940F4800045
:10291000E061E06900F480000090E1E700540040CD
:1029200000100240000C014000580040024881683D
:1029300002781144816070470000002010B50748FC
:10294000016841F010010160032000F069F80F20D8
:1029500000F006F800F026F8002010BD002002402C
:1029600070B504460D4D4FF47A712878B1FBF0F044
:102970000B490968B1FBF0F000F0ADFC08B1012093
:1029800070BD102C07D200222146501E00F028F8FE
:102990006C60002070BD012070BD000000000020B0
:1029A0000C00002008B50C48816941F001018161EB
:1029B000816901F001010091C16941F08051C1615B
:1029C000C06900F0805000900449486820F0E06041
:1029D00040F00070486008BD001002400000014057
:1029E000F0B40D460D4B1B68C3F30223C3F107047B
:1029F000042C00D90424191D072901D2002300E06A
:102A0000DB1E012606FA04F1491E294099409E402A
:102A1000761E16403143F0BC02F00FBE0CED00E014
:102A200000F00701054A10684FF6FF03184040EA1E
:102A30000120034908431060704700000CED00E0DE
:102A40000000FA052DE9F04704460D46002C17D08A
:102A5000DFF83081D8F8000000F00700A84211D25A
:102A6000D8F8000020F007002843C8F80000D8F884
:102A7000000000F00700A84204D00120BDE8F08764
:102A80000120FBE72068404E810712D5400703D59F
:102A9000706840F4E06070602078000703D57068CB
:102AA00040F4605070607068A16820F0F000084346
:102AB00070602078C0072CD06068012806D00228FA
:102AC00009D0316889070BD40120D7E73168890321
:102AD00006D40120D2E73168890101D40120CDE775
:102AE000716821F0030101437160FFF7D7F90746D0
:102AF00041F2883906E0FFF7D1F9C01B484501D9FA
:102B00000320BBE77068616800F00C00B0EB810F38
:102B1000F1D1D8F8000000F00700A8420ED9D8F88B
:102B2000000020F007002843C8F80000D8F8000093
:102B300000F00700A84201D001209FE7207840075D
:102B400005D57068E16820F4E06008437060207883
:102B5000000706D57068216920F4605040EAC10082
:102B6000706000F03FF87168084AC1F30311515CCE
:102B7000C8400749086007480068FFF7F1FE0020D9
:102B80007CE700000020024000100240867300082D
:102B90000C0000200400002001480068704700007D
:102BA0000C00002000B5FFF7F7FF04494968044A0C
:102BB000C1F30221515CC84000BD0000001002407A
:102BC0009673000800B5FFF7E7FF04494968044A17
:102BD000C1F3C221515CC84000BD0000001002409A
:102BE000967300080E4B59680E4801F00C02042A37
:102BF00011D0082A0FD10C48C1F38342805CC9036D
:102C00000AD55968084AC1F34041921E515C054AF1
:102C10005043B0FBF1F0704704494843704700004F
:102C20000010024000127A007673000800093D008F
:102C30002DE9F84F0446002C0ED02078D94DC0075E
:102C40005ED06868C0F3810001280BD06868C0F3CB
:102C50008100022803D00CE00120BDE8F88F6868ED
:102C6000C00306D5286880034AD56068A8BB012048
:102C7000F3E76068B0F5803F11D0A8B1B0F5A02FA0
:102C80001BD0286820F480302860286820F4802039
:102C90002860606830B3FFF701F906461EE0286837
:102CA00040F480302860F4E7286820F48030286001
:102CB000286820F480202860EBE7286840F4802012
:102CC0002860286840F480302860E2E7FFF7E6F8E3
:102CD000801B642802D90320BFE711E02868800325
:102CE000F4D50DE0FFF7DAF8064606E0FFF7D6F870
:102CF000801B642801D90320AFE728688003F5D43E
:102D00002078DFF8A48280074FF0010A4FF0000915
:102D100045D5686810F00C0F07D06868C0F38100D3
:102D2000022812D16868C0030FD42868800704D530
:102D30002069012801D001208FE72868616920F00F
:102D4000F80040EAC100286029E02069B8B1C8F85D
:102D500000A0FFF7A3F8064606E0FFF79FF8801BE8
:102D6000022801D9032078E728688007F5D528686C
:102D7000616920F0F80040EAC10028600FE0C8F85F
:102D80000090FFF78BF8064606E0FFF787F8801BF8
:102D9000022801D9032060E728688007F5D420784D
:102DA000000726D58148A16999B1C0F800A0FFF7B6
:102DB00075F8064606E0FFF771F8801B022801D976
:102DC00003204AE7686A8007F5D5012001F05CFE20
:102DD0000FE0C0F80090FFF761F8064606E0FFF745
:102DE0005DF8801B022801D9032036E7686A800756
:102DF000F5D42078400773D50026E869C00008D4D0
:102E0000E86940F08050E861E86900F08050009087
:102E10000126DFF89CB1DBF80000C00514D4DBF814
:102E2000000040F48070CBF80000FFF737F8074649
:102E300006E0FFF733F8C01B642801D903200CE734
:102E4000DBF80000C005F4D5E068012812D0B0B16D
:102E500005281DD0286A20F001002862286A20F089
:102E600004002862E06841F2883B28B3FFF716F8B7
:102E700007461DE0286A40F001002862F2E7286A50
:102E800020F001002862286A20F004002862E9E7A7
:102E9000286A40F004002862286A40F00100286295
:102EA000E0E7FEF7FBFFC01B584501D90320D4E63D
:102EB000286A8007F5D50DE0FEF7F0FF074606E02B
:102EC000FEF7ECFFC01B584501D90320C5E6286A70
:102ED0008007F5D4012E03D1E86920F08050E86125
:102EE000E069A0B36968C1F38101022946D00228D4
:102EF00005D0C8F86090FEF7D1FF04463AE0C8F864
:102F00006090FEF7CBFF064606E0FEF7C7FF801B8A
:102F1000022801D90320A0E628688001F5D4206AA0
:102F2000B0F5803F05D16868A16820F400300843FF
:102F30006860D4E908010843696821F47411084302
:102F40006860C8F860A0FEF7A9FF044607E026E025
:102F5000FEF7A4FF001B022801D903207DE62868A4
:102F60008001F5D51BE0FEF799FF001B022801D96F
:102F7000032072E628688001F5D410E001280CD007
:102F80006868226A00F48031914204D1616A00F4D9
:102F90007010884203D001205FE601205DE600202A
:102FA0005BE6000000100240000042428004424202
:102FB0000070004070B50446002C09D0606A0025FE
:102FC00040B125616561A56294F8510040B10CE003
:102FD000012070BD6068B0F5827FF4D0E561F2E752
:102FE00084F85050204600F03FF8022084F8510049
:102FF0002068016821F040010160A088218900F467
:10300000827001F404410843A18901F4006108437E
:10301000217C01F002010843217D01F001010843F8
:10302000218B01F400710843217F01F0380108432E
:1030300094F8201001F080010843218D01F4005123
:10304000084321680860A069042101EA1040216852
:1030500048602068C16921F40061C1616565012093
:1030600084F85100002070BD30B585B00024019473
:1030700002940394049400681549884225D11548A8
:10308000C16941F48041C161C16901F4804100918D
:10309000816941F008018161806900F008000090B9
:1030A0004FF42040019002200290032004900A4D2A
:1030B00001A92846FEF7EAFD4FF4804101910294F0
:1030C000039401A92846FEF7E1FD05B030BD0000DC
:1030D0000038004000100240000C01402DE9FF4F75
:1030E00081B004460E9E93461F460125FEF7D6FE8C
:1030F000804694F85100616801280AD0B1F5827FBA
:1031000003D1A16809B9042803D0022005B0BDE8A5
:10311000F08F0298A0B3BBF1000F32D0380030D04E
:1031200094F8500001282ED04FF0010A84F850A0E6
:1031300094F85100042802D0052084F851004FF083
:103140000009C4F85490C4F838B0E787A7870298FC
:103150002063E786A786C4F84090C4F844902068AE
:103160000168490603D4016841F040010160E0684C
:10317000B0F5006F09D06068F0B3012F4DD082E048
:10318000FFE70120C2E70220C0E7606808B1012F15
:103190003CD1206B21680088C860206B801C2063B4
:1031A000E08E401EE08631E02068816889070DD5F9
:1031B000E18E59B1012D09D1216B0988C160206BC5
:1031C000801C2063E08E401EE08600252068816818
:1031D000C9070BD0E18F49B1C068A16B0880A06B13
:1031E000801CA063E08F401EE0870125FEF756FE9D
:1031F000A0EB0800B04200E00FE007D3701C05D040
:1032000084F851A084F8509003207FE7E08E0028D6
:10321000CAD1E08F0028C7D13BE0206B216800783D
:103220000873206B401C2063E08E401EE0862AE07D
:103230002068816889070DD5E18E59B1012D09D12A
:10324000216B09780173206B401C2063E08E401EC7
:10325000E086002520688168C9070BD0E18F49B15D
:10326000C068A16B0870A06B401CA063E08F401E7B
:10327000E0870125FEF712FEA0EB0800B04201D363
:10328000701C12D18EB1E08E0028D1D1E08F0028C1
:10329000CED142463146204601F008FC58B12020EC
:1032A000606584F85090012030E784F851A084F8DC
:1032B000509003202AE7A06818B92068C168806888
:1032C000009084F851A084F85090606D08B10120FE
:1032D0001CE700201AE710B5401EB0F1807F01D333
:1032E000012010BD4FF0E02460610F21601702F053
:1032F000A4F90020A06107202061002010BD00007B
:1033000070B590F83C20012A25D0012680F83C6059
:10331000022280F83D2002685468936824F070050A
:103320000C682C4354600D4C0268A24208D0B2F1E4
:10333000804F05D00A4CA24202D00A4CA24204D1CE
:1033400023F080034968194391603C3046700021A6
:103350000170002070BD022070BD0000002C0140F3
:10336000000400400008004010B50446002C03D0C3
:1033700094F83D0010B107E0012010BD002084F852
:103380003C00204600F016F8022084F83D00211D84
:10339000206801F047FC01203D3460726070A0702D
:1033A000E07020716071A071E071207220700020C7
:1033B00010BD000008B500680C49B0F1804F0BD07B
:1033C0000B4A904207D1C86940F00200C861C86941
:1033D00000F00200009008BDC86940F00100C8611B
:1033E000C86900F00100009008BD00000010024014
:1033F0000004004070B50446002594F83C00012804
:1034000017D0012684F83C60022084F83D00206833
:10341000826822F0770222F47F4282600868502896
:1034200038D00DDC202853D005DC90B3102811D102
:103430004EE0022070BD30284AD040280AD13DE03D
:10344000602831D070280CD0B0F5805F03D0B0F583
:10345000005F12D001253C346670002020702846A1
:1034600070BDCB68D1E90121206801F024FC2068FF
:10347000816841F077018160EDE7CB68D1E90121F6
:10348000206801F018FC2068816841F48041816067
:10349000E1E71DE0CA684968206801F0D5FC5021C9
:1034A000206801F012FCD6E7CA684968206801F07C
:1034B000DCFC6021206801F008FCCCE7CA684968A0
:1034C000206801F0C1FC4021206801F0FEFBC2E74A
:1034D00022680146104601F0F8FBBCE730B585B024
:1034E0000021019102910391049100681E49022478
:1034F000B0F1804F27D01D4A904222D1886940F018
:1035000008008861886900F0080000901020019090
:1035100002940494164D01A92846FEF7B7FB20211A
:10352000019112210291049401A92846FEF7AEFBF5
:103530001049486820F4406040F0E06040F40060CA
:10354000486005B030BD886940F004008861886932
:1035500000F004000090032001900294049401A95B
:103560000548FEF793FBECE7001002400004004022
:10357000000C0140000001400008014070B5044605
:103580000D46002694F83C0001280FD0012084F855
:103590003C006AB1042A1FD0082A32D00C2A44D039
:1035A0000126002084F83C00304670BD022070BD2A
:1035B0002946206801F092FB2068816941F00801EA
:1035C00081612068816921F004018161206881693D
:1035D0002A6911438161E4E72946206801F0AEFBC6
:1035E0002068816941F4006181612068816921F46A
:1035F00080618161206881692A6941EA02218161D3
:10360000CFE72946206801F0CBFB2068C16941F073
:103610000801C1612068C16921F00401C16120680D
:10362000C1692A691143C161BBE72946206801F0DD
:10363000E7FB2068C16941F40061C1612068C1698C
:1036400021F48061C1612068C1692A6941EA0221CF
:10365000C161A6E710B50446002C03D094F83D00E4
:1036600010B107E0012010BD002084F83C00204686
:1036700000F015F8022084F83D00211D206801F0BB
:10368000D1FA01203D3460726070A070E07020714A
:103690006071A071E07120722070002010BD704731
:1036A00010B50446002909D004290AD008290BD0F6
:1036B00094F8410001280AD0012010BD94F83E0082
:1036C000F8E794F83F00F5E794F84000F2E70220AD
:1036D00039B3042928D0082929D084F841000122CF
:1036E000206801F0DBFA16492068884203D1426C59
:1036F00042F4004242642068884208D0B0F1804F12
:1037000005D01049884202D00F49884212D1816801
:1037100001F00701062911D0016841F001010160A3
:103720000CE084F83E00DAE784F83F00D7E784F83D
:103730004000D4E7016841F001010160002010BDA4
:10374000002C0140000400400008004070B5044611
:10375000002C04D094F84100002510B106E00120AF
:1037600070BD84F84050204600F024F8242084F8EE
:1037700041002068C16821F40051C160204601F079
:10378000ADFB2068016921F4904101612068416925
:1037900021F02A0141612068C16841F40051C160F3
:1037A0006564202084F8410084F8420065630020AD
:1037B00070BD000030B585B00024019402940394DC
:1037C000049400681449884223D11448C16941F423
:1037D0000031C161C16901F400310091816941F09A
:1037E00004018161806900F00400009004200190D0
:1037F0000220029003200490094D01A92846FEF7FB
:1038000045FA082101910294039401A92846FEF784
:103810003DFA05B030BD00000044004000100240F9
:10382000000801402DE9F84304460E4615461F46A0
:1038300094F84100202802D00220BDE8F8837EB130
:1038400075B100206064212084F84100FEF726FB5A
:103850008146A584E584A068B0F5805F02D003E0CE
:103860000120EAE7206920B1354600264FF0200804
:1038700015E00025FAE74B460022802120460097FC
:1038800001F088FB18B184F841800320D5E7ADB181
:10389000216815F8010B4860E08C401EE084E08C44
:1038A0000028E8D14B46002240212046009701F035
:1038B00071FB50B184F841800320BEE736F8020B5B
:1038C0002168C0F308004860E6E784F841800020E2
:1038D000B3E7FEE701684A69D24352050FD46FF49B
:1038E00080624A61002140F8301F202242738173B8
:1038F000026942F004020261017301207047002056
:10390000704700002DE9F84F04468B4692461D464D
:10391000E06A21680A6842F480620A60082808D0D8
:10392000012806D010F5803F03D0206B112806D067
:103930000AE02068016841F48071016004E02068B9
:10394000016841F4807101604FF001185346002274
:1039500041462046009500F0E5F94FF4007738B174
:1039600020680068C00500D527640320BDE8F88FF3
:103970002069DFF8A090B0F5804F10D021680BF4DB
:103980004076F02040EAD61008612B46524609F1F5
:103990000601204600F01CFA40B10120E6E721684C
:1039A0000BF0FF0040F00100086128E021680BF0F7
:1039B000FF0008612B4652464946204600F008FAAF
:1039C00008B10120D2E7206841698169009101684E
:1039D00041F4807101605346002241462046009523
:1039E00000F0A0F930B120680068C00500D5276458
:1039F0000320BBE72168F12040EAD61008612B467E
:103A000052464946204600F0E3F908B10120ADE7EF
:103A10000020ABE702000100F8B504460D4617464A
:103A20001E46E06A082808D0012806D010F5803F1D
:103A300003D0206B122806D00AE02068016841F408
:103A40008071016004E02068016841F480710160C8
:103A50003B4600224FF001112046009600F062F92B
:103A600040B120680068C00502D54FF400702064A2
:103A70000320F8BD2069B0F5804F0FD005F44070E9
:103A8000F02141EAD0102168086133463A460D49D9
:103A9000204600F09DF930B10120F8BD216805F005
:103AA000FE00086102E02168E8B20861054933467A
:103AB0003A46891F204600F08BF908B10120F8BD75
:103AC0000020F8BD080001002DE9F84F04460B9EC8
:103AD0000F4690461D462068016841F480610160F0
:103AE0002068016841F48071016000964FF0011A6E
:103AF0000022514620460A9B00F014F94FF4007949
:103B000040B120680068C00501D5C4F8409003208A
:103B1000BDE8F88F216807F0FE000861DFF8E4B027
:103B20003346594620460A9A00F052F908B101205E
:103B3000EEE72068416980690090324620460A9984
:103B400000F0E5F948B1206C042804D12068016830
:103B500041F4007101600120DAE7284608F0FF0512
:103B600001280DD021684FEA18200861324620460E
:103B70000A9900F0CCF968B1206C042803D007E062
:103B80002068056108E02068016841F40071016067
:103B90000120BDE720680561324620460A9900F001
:103BA000B6F948B1206C042804D12068016841F4BA
:103BB000007101600120ABE72068016841F4807169
:103BC000016000960022514620460A9B00F0AAF8A8
:103BD00038B120680068C00501D5C4F840900320C2
:103BE00096E72168F8B240F0010008613346594673
:103BF00020460A9A00F0ECF808B1012088E700207E
:103C000086E70000020001002DE9F8430446DDE9E3
:103C100008970D46164698462068016841F4807161
:103C200001604B4600224FF001112046009700F042
:103C300079F848B120680068C00502D54FF40070DB
:103C400020640320BDE8F883216805F0FE000861C8
:103C50003B464A461C49204600F0BAF808B101200C
:103C6000F0E720684169806900903A46494620465D
:103C700000F04DF948B1206C042804D12068016897
:103C800041F4007101600120DCE7F5B2B8F1010FE9
:103C90000CD02168300A08613A464946204600F0B7
:103CA00036F968B1206C042803D007E0206805616C
:103CB00008E02068016841F4007101600120C1E75B
:103CC000206805610020BDE70200010070B50446D0
:103CD0000D4616461FE02046FFF7FCFD08B1012007
:103CE00070BD681C17D0FEF7D9F8801BA84200D819
:103CF0008DB920684069C04340070CD5002044F8C6
:103D0000300F20216173A073216941F020012161EE
:103D10002073012070BD20684069C0434007DAD499
:103D2000002070BD2DE9F0470446DDF820900D46D7
:103D300090461E46C5F307472FE0701C2DD0FEF7B6
:103D4000ADF8A0EB0900B04200D836BB012F17D068
:103D50002068806925EA00000004000C1BD00020C8
:103D600040451AD1002044F8300F20216173A07320
:103D7000216941F02001216120730120BDE8F08715
:103D80002068406925EA00000004000C01D00020F2
:103D9000E6E70120E4E70120E2E7012F0BD02068ED
:103DA000806925EA00000004000C0FD00020404587
:103DB000C3D00020E2E72068406925EA0000000443
:103DC000000C01D00020F2E70120F0E70120EEE72F
:103DD0002DE9F04704460D46164698464FF0000977
:103DE0004FF0200AC5F3074743E020684069C0430D
:103DF000400517D42068016841F400710160216812
:103E00006FF480604861C4F8309084F83DA084F875
:103E10003E90206C40F00400206484F83C90012027
:103E2000BDE8F087701C24D0FEF738F8A0EB08003E
:103E3000B04200D8EEB9012F14D02068806925EA7D
:103E400000000004000C14D0C4F8309084F83DA0A9
:103E500084F83E90206C40F02000206484F83C9070
:103E60000120DDE72068406925EA00000004000C1D
:103E7000EAD1012F08D02068806925EA00000004FB
:103E8000000CB2D10020CBE72068406925EA000091
:103E90000004000CF6D0A8E72DE9F04104460D46D9
:103EA000164600274FF020082AE04069C043C006AC
:103EB0000FD421686FF010004861276384F83D80BB
:103EC00084F83E70206C206484F83C700120BDE8CA
:103ED000F081FDF7E3FF801BA84200D885B9206878
:103EE0004069C04340060BD544F8307F84F80D800C
:103EF000A773206940F02000206127730120E6E7C6
:103F000020684169C9434906CFD40020DFE770B576
:103F100004460D4616461FE02046FFF7DBFC08B1BD
:103F2000012070BD681C17D0FDF7B8FF801BA842A8
:103F300000D88DB920684069C04300060CD5002028
:103F400044F8300F20216173A073216941F02001F2
:103F500021612073012070BD20684069C0430006C4
:103F6000DAD4002070BD000030B403461A485A78F5
:103F7000441581151B78012A15D843B1012B0AD0AD
:103F8000022B0CD0032B24D130BCFDF77FBF30BCFB
:103F90000221FDF77BBF214630BCFDF777BF30BC67
:103FA0000821FDF773BF43B1012B0AD0022B0CD0BF
:103FB000032B0ED130BCFDF761BF30BC0221FDF7F1
:103FC0005DBF214630BCFDF759BF30BC0821FDF76D
:103FD00055BF30BC70470000000C014030B58DB0BB
:103FE0001E245C2162A0FCF70DF928B15C2160A0C1
:103FF000FCF708F9401C00E05DA00146C42264A063
:1040000001F0E4FA2CE00AA800F08AF9BDF92810C2
:10401000BDF91C20881A002801DC881840423C2881
:1040200017DCBDF92A10BDF91E20881A002801DC12
:10403000881840423C280CDCBDF92C10BDF920202A
:10404000881A002801DC881840423C2801DC641EE4
:10405000E4B20AA807AB07C807C30320FDF704FEB4
:10406000002CD0D15C2142A0FCF7CCF828B15C2117
:104070003FA0FCF7C7F8401C00E03DA00146D1225C
:104080004CA001F0A3FA5C2139A0FCF7BBF828B1E1
:104090005C2137A0FCF7B6F8401C00E034A00146D4
:1040A000D3224DA001F092FA182101A8FCF79FF845
:1040B000FF24002529E0514800F032F94F480199CA
:1040C000B0F9002011440191B0F902200299114485
:1040D0000291B0F90420039911440391B0F906202C
:1040E000049911440491B0F90820059911440591EF
:1040F000B0F90A0006990844A0F57C50FF380690F4
:104100000320FDF7B1FD6D1CADB2A542D3D30198DC
:1041100090FBF4F13A480180029991FBF4F141805F
:10412000039991FBF4F18180049991FBF4F1C18032
:10413000059991FBF4F10181069991FBF4F141811C
:10414000014630A0FDF79AFA5C2109A0FCF75AF865
:1041500028B15C2106A0FCF755F8401C00E004A043
:104160000146EA222BA001F031FA0DB030BD00006B
:104170002E2E5C496E746572666163655C6D707548
:104180005C496E665F6D7075363035302E630000A9
:104190005B253135733A2534645D202D2D2020CDEB
:1041A000D3C2DDD2C73A20B5C8B4FDBEB2D6B90D70
:1041B0000A0000005B253135733A2534645D202DFB
:1041C0002D2020CDD3C2DDD2C73A20D2D1BEADBE84
:1041D000B2D6B90D0A0000005B253135733A25349B
:1041E000645D202D2D2020CDD3C2DDD2C73A20BF63
:1041F000AACABCD0A3D7BC0D0A00000054040020FA
:104200006E370020CDD3C2DDD2C7C6ABD2C6D6B57D
:10421000000000005B253135733A2534645D202DA4
:104220002D2020CDD3C2DDD2C73A20BDE1CAF8D0BF
:10423000A3D7BC0D0A00000010B580216B2000F050
:10424000A9F8C820FDF710FD00216B2000F0A2F8AE
:1042500018211B2000F09EF800211C2000F09AF885
:104260000021382000F096F800216A2000F092F832
:104270000021232000F08EF80121192000F08AF897
:1042800001211A2000F086F801216B2000F082F84D
:1042900000216C2000F07EF8BDE81040FFF79EBEC4
:1042A0001CB50446002000900190062269463B2080
:1042B00000F062F89DF801009DF8001040EA01202E
:1042C00020809DF803009DF8021040EA01206080E4
:1042D0009DF805009DF8041040EA0120A0801CBD57
:1042E0001CB5044600200090019006226946432038
:1042F00000F042F89DF801009DF8001040EA01200E
:1043000020809DF803009DF8021040EA01206080A3
:104310009DF805009DF8041040EA0120A0801CBD16
:1043200010B504462046FFF7DBFFA01DBDE8104096
:10433000FFF7B6BF10B504462046FFF7F1FF0D4862
:1043400021880288891A218061884288891A6180BF
:10435000A1888288891AA180E188C288891AE180AF
:1043600021890289891A218161894089081A60811D
:1043700010BD00006E3700200EB54FF4FA638DE8D3
:104380000E0002460123D1210148FEF76DF80EBD53
:104390007002002013B584B0012305AC4FF4FA611C
:1043A000CDE9004302460291D0210248FEF7D0F940
:1043B00006B010BD7002002000B5074800F03EF8BE
:1043C000064800F03BF8064800F038F805485DF86C
:1043D00004EB00F033B800001C0000202000002097
:1043E000240000202800002010B500210D48FFF710
:1043F00057F904210B48FFF753F904210A48FFF746
:104400004FF900210848FFF74BF908490020488080
:10441000074948800749488007494880BDE810405F
:10442000FFF7CABFB8030020700300201C00002063
:10443000200000202400002028000020B0F90210F5
:104440004FF47A72914201DB114602E0002900DC50
:104450000021418000780A4A48B101280AD0094A5F
:1044600002280AD0032801D1106841637047106800
:1044700041637047106881637047106881637047BB
:10448000B8030020700300207FB513A003C8CDE956
:1044900002010020009001900024052202A9302092
:1044A00000F0AEF805226946102000F04BF800201D
:1044B00002AA6946155C0B5CAB4201D1641CE4B2F4
:1044C000401CC0B20528F5D3052C02D0012004B051
:1044D00070BD0020FBE70000A5A5A5A5A500000074
:1044E00070B5164D4FF48074002221462846FDF722
:1044F000CDFC052212492A2000F082F8012121205A
:1045000000F0A4F80121222000F0A0F86F2125205E
:1045100000F09CF81221312000F098F80F2126209D
:1045200000F094F80F21202000F090F82146284652
:10453000BDE870400122FDF7A9BC00000008014061
:104540005F0200202DE9F04104460D461646DFF8D3
:104550003C804FF48057002239464046FDF796FCD8
:104560002046FDF76FFB002406E00020FDF76AFB04
:1045700005F8010B641CE4B2B442F6D301223946BB
:104580004046FDF783FC0020BDE8F081000C0140AF
:1045900070B506460A4D4FF4805400222146284645
:1045A000FDF774FC3046FDF74DFB0020FDF74AFB9C
:1045B0000646012221462846FDF768FC304670BDBC
:1045C000000C014070B505460720FFF7E1FF0446E7
:1045D0002146272000F03AF860060CD51222294621
:1045E0006120FFF7AFFFFF21E22000F02FF8034921
:1045F0000020088070BD012070BD0000580200201E
:104600002DE9F04704460D461646DFF83C904FF47E
:104610008058002241464846FDF738FC2046FDF709
:1046200011FB0746002405E015F8010BFDF70AFB16
:10463000641CE4B2B442F7D3012241464846FDF778
:1046400025FC3846BDE8F087000C01402DE9F0411B
:1046500007460E460B4D4FF4805400222146284653
:10466000FDF714FC3846FDF7EDFA07463046FDF736
:10467000E9FA012221462846FDF708FC3846BDE844
:10468000F0810000000C014008B56946522000F09E
:10469000BCFC9DF8000030B1522000F0D4FC03496E
:1046A000522000F0D4FC0148008808BD64020020BC
:1046B00038B5154C002220212046FDF7E7FB4FF4CA
:1046C000FA70FDF7D1FA012220212046FDF7DEFB2A
:1046D000522000F043FD0221522000F07BFD142106
:1046E000522000F0F3FD1421522000F0CDFD5220A5
:1046F00000F0C2FE6946522000F0D8FCBDF8001060
:1047000002A000F063FF38BD0008014073656E73BE
:104710006F7249443D25780D0A0000002DE9F041F3
:1047200086B0002402940394049405942F48816970
:1047300041F010018161816901F0100101918169ED
:1047400041F020018161816901F0200101918169BD
:1047500041F004018161816901F0040101918169E5
:1047600041F008018161806900F008000190204F4C
:1047700001224FF490713846FDF788FBDFF8748012
:10478000002240F20A314046FDF780FB012211036E
:104790004046FDF77BFB20200290112003900494FB
:1047A0000225059502A93846FDF770FA41F20A3054
:1047B0000290012603960494059502A94046FDF750
:1047C00065FA042002900394049602A94046FDF77E
:1047D0005DFAE801029003960494059502A9384613
:1047E000FDF754FA06B0BDE8F08100000010024069
:1047F00000080140000C014010B50D480B49016054
:104800000C49416000218160C1604FF48042026127
:1048100041618161C1610162FDF746FB002803D05F
:10482000BDE81040FDF71EBA10BD00000054004066
:1048300070020020801A060010B50D480B49016077
:104840000C49416000218160C1604FF480420261E7
:1048500041618161C1610162FDF726FB002803D03F
:10486000BDE81040FDF7FEB910BD00000058004043
:10487000C4020020801A060010B510480E490160DD
:104880004FF48271416000218160C160016141612A
:104890004FF4007282610822C2610162416281624A
:1048A0000A21C162FEF786FB002803D0BDE8104054
:1048B000FDF7D8B910BD00000038004018030020F3
:1048C00010B58EB000240A940B940C940D940894A7
:1048D00009941C2101A8FBF78AFC22484FF0804173
:1048E000016003214160846040F2E731C1600461EE
:1048F0008461FEF739FD08B1FDF7B4F94FF480503B
:104900000A900AA91748FEF775FD08B1FDF7AAF944
:104910001448FEF79FFE08B1FDF7A4F90894099426
:1049200008A91048FEF7ECFC08B1FDF79BF96020E0
:1049300001900294039404200590002201A90948E3
:10494000FEF71CFE08B1FDF78DF9042201A9054808
:10495000FEF714FE08B1FDF785F90248FEF7BEFD2B
:104960000EB010BD7003002010B58EB000240A9464
:104970000B940C940D94089409941C2101A8FBF746
:1049800036FC23482149016003214160846040F2E4
:10499000E731C16004618461FEF7E6FC08B1FDF710
:1049A00061F94FF480500A900AA91948FEF722FDD8
:1049B00008B1FDF757F91648FEF74CFE08B1FDF7B0
:1049C00051F90894099408A91148FEF799FC08B117
:1049D000FDF748F9602001900294039404200590AB
:1049E000002201A90A48FEF7C9FD08B1FDF73AF90E
:1049F000042201A90648FEF7C1FD08B1FDF732F90E
:104A00000348FEF76BFD0EB010BD0000000400402F
:104A1000B803002010B50C480A4901604FF4E13199
:104A2000416000218160C16001610C2242618161AD
:104A3000C161FEF78BFE002803D0BDE81040FDF7F2
:104A400011B910BD0044004000040020FEE7FEE75D
:104A500070B504464FF07F554FF0FF312046FBF70D
:104A6000A4FC0849A1EB64042146FBF72EFC214677
:104A7000FBF72BFC2946FBF725FC2146BDE87040DF
:104A8000FBF723BCDF59375F08B507494FF4FA52EB
:104A90000968B1FBF2F14143009100BF0098411E4B
:104AA0000091FAD208BD00000C000020F8B50446C1
:104AB0000E4615463346012202212046009500F09D
:104AC00017F828B1606D40F0200060650320F8BD44
:104AD0003346002280212046009500F009F828B1D5
:104AE000606D40F0200060650320F8BD0020F8BD37
:104AF0002DE9F84304460F4691461E46089DFDF7F2
:104B0000CDF9401B351AFDF7C9F9804626480068E3
:104B1000C0F3CB30684300903AE0701C38D0FDF70A
:104B2000BDF9A0EB0800A84203D215B1009858B314
:104B30002BE02068416821F0E00141606068B0F539
:104B4000827F0BD1A068B0F5004F02D0B0F5806F26
:104B500004D12068016821F040010160A06AB0F52D
:104B6000005F09D12068016821F4005101602068CC
:104B7000016841F400510160012050346070002050
:104B800020700320BDE8F88300250098401E0090A7
:104B90002068806837EA000004D000204845BCD176
:104BA0000020EFE70120F9E70C00002010B5FDF729
:104BB000BDFE02F0B1FA012803D0BDE8104002F0BA
:104BC00033BA10BD30B58FB0282105A8FBF70FFB15
:104BD00014216846FBF70BFB0121059108040690A0
:104BE00000240794099102250C950D904FF4E010D4
:104BF0000E9005A8FEF71CF808B1FDF733F80F205A
:104C00000090019502944FF4806003900494022177
:104C10006846FDF717FF002801D0FDF723F80FB015
:104C200030BD7047F0B50268194C1A4D1A4E4FF05E
:104C30008047A04205D0B84203D0A84201D0B0427C
:104C400003D122F070034A681A43A04205D0B8424B
:104C500003D0A84201D0B04203D122F44073CA6805
:104C60001A434B6922F080021A4302608A68C262CA
:104C70000A688262A04201D1096901630121416190
:104C80000169C90703D0016921F001010161F0BD8B
:104C9000002C0140000400400008004010B501F065
:104CA0001F0101238B40046A9C430462036A8A400B
:104CB0001343036210BD10B5846824F47F4442EAB4
:104CC00003220A432243826010BD826822F07002F0
:104CD0000A4342F0070181607047000030B5026A64
:104CE000036A23F0010303624368846924F07004BB
:104CF00024F003050C682C4322F002058A682A433D
:104D00000D4DA84206D122F00802CD6845EA020501
:104D100025F0040209D123F4807323F400734D6954
:104D200045EA03058B6943EA0503436084614968EA
:104D30004163026230BD0000002C014030B5036ABF
:104D4000026A22F0100202624268846924F4E0449C
:104D500024F440740D6844EA052423F020038D6890
:104D600043EA05130D4DA84206D123F08003CD6818
:104D700043EA051323F0400309D122F4806222F4B0
:104D800000624D6942EA85028D6942EA850242600D
:104D9000846149688163036230BD0000002C0140DA
:104DA00030B5026A036A23F4807303624368C469FE
:104DB00024F0700424F003050C682C4322F40072E4
:104DC0008D6842EA05220D4DA84206D122F4006208
:104DD000CD6842EA052222F4806209D123F480538F
:104DE00023F400534D6943EA05138D6943EA051323
:104DF0004360C4614968C163026230BD002C014058
:104E000030B5036A026A22F4805202624268C469C1
:104E100024F4E04424F440740D6844EA052423F4A7
:104E200000538D6843EA0533064DA84204D122F4AD
:104E300080424D6942EA85124260C461496801645A
:104E4000036230BD002C014010B5036A046A24F0EF
:104E500001040462846924F0F00444EA021423F09B
:104E60000A020A438461026210BD10B5036A046A33
:104E700024F010040462846924F4704444EA023289
:104E800023F0A00343EA01118261016210BD0168B1
:104E90000C3151E8002F22F4907241E80023002BDE
:104EA000F5D10168143151E8002F22F0010241E8E8
:104EB0000023002BF5D1016B012909D101680C31C8
:104EC00051E8002F22F0100241E80023002BF5D119
:104ED000202180F8421000210163704770B504461C
:104EE00020680169E26821F4405111430161A16821
:104EF00020690143606901432068C26841F20C6384
:104F00009A430A43C26020684169A26921F4407152
:104F1000114341611E492068884202D1FDF752FECB
:104F200001E0FDF73FFE00EBC00101EB00106168FE
:104F300064228900B0FBF1F3B3FBF2F36FF01806C3
:104F40007343B0FBF1F5B0FBF1F605EB83053223BB
:104F500003EB0515B5FBF2F5B6FBF2F605F0F0052F
:104F600005EB0615B0FBF1F6B0FBF1F0B0FBF2F08B
:104F70006FF01801484306EB800003EB0010B0FB14
:104F8000F2F0216800F00F002844886070BD000036
:104F9000003801402DE9F84304460D46174698466F
:104FA000089E25E0701C23D0FCF778FFA0EB0800DA
:104FB000B0421BD8D6B12068C168490718D5802DEA
:104FC00016D0402D14D00168C943090710D400251C
:104FD00021680968406800902046FFF758FF0820C4
:104FE000606484F840500120BDE8F8830320FBE7AB
:104FF0002068006835EA000004D00020B842D1D013
:105000000020F1E70120F9E7FEE77CB506460C46F3
:105010006946304600F038F8054601AA312130468D
:1050200000F032FA2843002809D19DF804109DF8B9
:10503000002001F00101914202D1012121707CBDCB
:10504000002121707CBD0122862100F063BA38B5B1
:105050000C466A46962100F037FABDF800202280FF
:1050600038BD38B50C466A464B2100F00DFAC1B286
:105070009DF80000142801D1012222800A2801D1C4
:105080000220208048B238BD38B50C466A4630212F
:1050900000F0FAF99DF8001001F0100200921109D9
:1050A00002D00022227038BD0122FBE738B50C4641
:1050B000002200926A4640F20F1100F005FABDF896
:1050C0000020228038BD38B50C466A465E2100F0CB
:1050D000FBF9BDF80020B2F5D77F32D00EDC602A94
:1050E0002CD006DC1D2A23D01E2A24D0512A1BD105
:1050F00021E0AD2A25D0D62A16D11FE040F2E133B7
:10510000A2F2E1319A4222D009DCB2F5E67F1BD04F
:10511000A2F50072D93A1AD0082A05D114E0AE29B6
:1051200018D0B1F5D87F15D001200021218038BDDD
:105130000F21218038BD1421218038BD21212180FB
:1051400038BD3221218038BD6421218038BDC8217D
:10515000218038BD4FF4FA71218038BDF8B506467C
:1051600000252D241A4F2146381910F82D2C3046D1
:1051700000F0D0F90543641CE4B2872CF3D9304623
:1051800000F07AF940EA05040020009069463046B4
:10519000FFF73BFF04439DF800000028F6D030469F
:1051A000FFF751FF40EA0405304600F069F940EA94
:1051B000050709220821304600F0ACF940EA07044F
:1051C00000220B21304600F0A5F92043F8BD000075
:1051D0009E73000838B505460C4669462846FFF719
:1051E00072FF08B1012038BD012C0AD0022C29D051
:1051F00001200028F7D1BDF80010284600F066F81D
:1052000038BD14224B21284600F084F90722602182
:10521000284600F07FF905226321284600F07AF93C
:1052200038226921284600F075F940F2057278218C
:10523000284600F099F940F206627A21284600F0EB
:1052400093F9D6E70A224B21284600F063F90F2292
:105250006021284600F05EF90D226321284600F007
:1052600059F9B8226921284600F054F940F60D7228
:105270007821284600F078F940F60E627A21284617
:1052800000F072F9B5E70000F8B505460E466A462B
:10529000DE21284600F018F90446BDF80000C0F3EE
:1052A000090000907043FBF733FA4FF03332064B9E
:1052B000FBF72EF9FBF771FA02466C21284600F045
:1052C0003BF92046F8BD00003333F13FF8B5064600
:1052D0000C4669463046FFF7C4FE0546BDF800009F
:1052E00068B14FF4FA7101280BD0642C70D074DCD3
:1052F000142C6FD0212C6ED0322C6DD194E0012073
:10530000F8BD322C3BD006DC0F2C17D0142C20D04B
:10531000212C5BD128E0642C3ED0C82C49D08C4293
:1053200054D140F291525E21304600F01DF940F216
:10533000C1526121304600F017F99BE01D225E2129
:10534000304600F011F927226121304600F00CF9B7
:1053500090E051225E21304600F006F96E22612174
:10536000304600F001F985E0D6225E21304600F09B
:10537000FBF86E226121304600F0F6F87AE04FF437
:10538000D7725E21304600F0EFF84FF4F4726121DD
:10539000304600F0E9F86DE040F2E1225E2130464F
:1053A00000F0E2F84FF462726121304600F0DCF860
:1053B00060E040F2E1325E21304600F0D5F840F284
:1053C00096426121304600F0CFF853E0012551E0CC
:1053D00035E002E012E01CE04BE0C82C3CD08C42EF
:1053E00047D140F28F425E21304600F0BDF840F2D6
:1053F000A4426121304600F0B7F83BE01E225E2156
:10540000304600F0B1F822226121304600F0ACF8BD
:1054100030E060225E21304600F0A6F86E22612165
:10542000304600F0A1F825E0AD225E21304600F0C4
:105430009BF8C6226121304600F096F81AE04FF43E
:10544000E6725E21304600F08FF84FF4F57261216C
:10545000304600F089F80DE040F2D9225E21304656
:1054600000F082F84FF43E726121304600F07CF883
:1054700000E001252846F8BD4022872100F04AB807
:105480000022872100F046B82DE9F0410646154676
:1054900000240C480A0A027041700146022230467C
:1054A00000F086F86FF00C0708B13C4606E00122D8
:1054B0002946304600F06CF800B13C462046BDE875
:1054C000F08100007A3700202DE9F04107461646AA
:1054D00000240F4D080A28706970022229463846B8
:1054E00000F066F86FF00C0808B144460CE00222A8
:1054F0000749384600F04CF808B1444604E06878A3
:10550000297800EB012030802046BDE8F0810000C2
:105510007A37002070B50024064B0D0A1D705970B3
:105520009A700322194600F043F808B16FF00C049A
:10553000204670BD7A37002070B50024094B0D0A53
:105540001D705970110E9970110CD970110A1971D2
:105550005A710622194600F02BF808B16FF00C04BE
:10556000204670BD7A37002070B50024074B0D0A25
:105570001D705970110A9970DA700422194600F0F2
:1055800017F808B16FF00C04204670BD7A37002080
:1055900038B50C4602F10A01009193B240F00101C6
:1055A00022460248FCF74CFD38BD0000C402002032
:1055B00038B50C4602F10A01009193B20146224629
:1055C0000148FCF7ADFE38BDC40200200FB4054B06
:1055D00010B503A9044A029800F084F910BC5DF8E4
:1055E00014FB00004D66000868020020490050EAE4
:1055F000C12018BF04204A0D18BF40F0010040F23E
:10560000FF72B2EB515F08BF40F00200012808BFF3
:10561000052070474100080218BF04200A0E18BF79
:1056200040F001004FF07F4232EA010108BF40F034
:105630000200012808BF052070470907090E00284D
:1056400004DB00F1E02080F80014704700F00F0048
:1056500000F1E02080F8141D70472DE9F0414F1E45
:1056600000EBC7010446D1E9000115461E4637F09C
:1056700006020DD02A463346FAF74AFF7F1E04EB96
:10568000C703D3E90023FAF79CFE37F00602F1D1F5
:10569000022F25D0042F13D0062F18BFBDE8F081AC
:1056A0002A463346FAF734FFD4E90A23FAF789FE8B
:1056B0002A463346FAF72CFFD4E90823FAF781FE8D
:1056C0002A463346FAF724FFD4E90623FAF779FE8F
:1056D0002A463346FAF71CFFD4E90423FAF771FE91
:1056E0002A463346FAF714FFD4E90223FAF769FE93
:1056F0002A463346FAF70CFFD4E90023BDE8F0410F
:10570000FAF75FBE0122FBF78CB900221346104660
:105710001146FAF76FBF0000024A00201107FBF79D
:1057200080B9000001FDFFFFFAF777BD6FF05E0161
:105730000807FAF73ABE02E008C8121F08C1002A9B
:10574000FAD170477047002001E001C1121F002A02
:10575000FBD1704701490860704700006C020020CF
:105760002DE9FF5F82B00021DDE90430020DDDF894
:1057700040B0034318D044F61050A2F2FF32424327
:105780001514119801281FD0A5EB0B00401C5FEAEF
:10579000000A4FF000064E4FDFF83891B0465046F1
:1057A00015D5CAF1000413E0119801244AA3012879
:1057B00001D16FEA0B010298119AC0E90031C0E9EA
:1057C000024206B0BDE8F09FCBF10000DFE70446DF
:1057D0000021404A491842EB0450CDE9001012E084
:1057E000E00707D032463B4640464946FAF790FE6E
:1057F0008046894632463B4610461946FAF788FEEF
:1058000006460F466410002CEAD1DDE90401DDE90B
:105810000023BAF1000F06DAFAF77AFE42464B4649
:10582000FAF776FE05E0FAF7E5FE42464B46FAF750
:10583000E1FE04460E460022284BFBF721F903D86F
:105840004FF0FF30014607E00022254B204631464D
:10585000FAF7B7FDFBF7FCF8102409E0002C0ADB8F
:105860000A220023FAF7F7FF039B30321A55641E11
:1058700050EA0102F2D1641C039AC4F111031444EA
:10588000119A012A03D0012208430DD10AE00843EE
:1058900004D000204FF0110B119072E7A3EB0B0521
:1058A0006D1E0DE05B4504DD4FF0000205F10105C2
:1058B00004E003DA4FF00002A5F10105002AECD064
:1058C00002981199C0E90231C0E9004579E700006A
:1058D000000014400000F03F300000000000F043E2
:1058E0000000E03F2DE9FF4F95B09A4688460646F6
:1058F0000025EEE1252877D100242746F94A012129
:10590000039400E0044316F8013F203B01FA03F042
:105910001042F7D130782A2811D06FF02F03307859
:10592000A0F13002092A16D8039A44F0020402EBCF
:10593000820203EB42021044761C0390EFE758F812
:10594000042B0392002A03DA504244F400540390DB
:1059500044F00204761C30782E2816D116F8010F78
:1059600044F004042A280DD06FF02F023078A0F103
:105970003003092B09D807EB870302EB4303C71851
:10598000761CF3E758F8047B761C30786C280FD02F
:1059900006DC4C2817D068280DD06A2814D104E002
:1059A000742810D07A280FD10DE044F400140AE0D6
:1059B00044F4801401E044F440147278824202D12D
:1059C00004F58014761C761C307866280BD013DC26
:1059D000582877D009DC002875D04528F6D046280D
:1059E000F4D047281AD193E118E0632835D0642811
:1059F00079D0652812D18BE1702873D008DC672834
:105A0000F1D069286FD06E280DD06F2806D1ACE098
:105A100073282CD0752874D0782853D05246179903
:105A200090476D1C54E1C4F30250022809D00328AA
:105A30000DD0D8F8001004280DD00D6008F104082E
:105A400046E1D8F80010EA17C1E90052F6E7D8F8A5
:105A500000100D80F2E70D70F0E718F8041B8DF8C8
:105A6000001000208DF80100EB46012003E058F8FB
:105A700004BB4FF0FF3061074FF0000102D40DE08E
:105A800009F101018946B9420FDA8145F8DB1BF8BB
:105A900009100029F4D108E009F101018946814289
:105AA000FADB1BF809100029F6D103985346A0EB46
:105AB000090721463846179A00F080FA284400EB7F
:105AC000090507E044E008E10DE01BF8010B524630
:105AD00017999047B9F10109F7D253462146384644
