:020000040800F2
:10000000D04000209D01000889300008DB2900084D
:1000100085300008390F0008593900080000000039
:1000200000000000000000000000000005010008C2
:100030006B0F00080000000049010008C9360008E5
:10004000B7010008B7010008B7010008B7010008B0
:10005000B7010008B7010008B7010008B7010008A0
:10006000B7010008B7010008B7010008B701000890
:10007000B7010008B7010008B7010008B701000880
:10008000B7010008B7010008B7010008B701000870
:10009000B7010008B7010008B7010008B701000860
:1000A000B7010008B7010008B7010008B701000850
:1000B000B7010008B7010008B7010008B701000840
:1000C000B7010008B7010008B7010008B701000830
:1000D000B7010008B7010008B7010008B701000820
:1000E000B7010008B7010008B7010008DFF810D019
:1000F00000F09AF800480047453F0008AFF3008041
:10010000D0400020224B19680868B0E8F00F80F357
:100110000988BFF36F8F4FF0000080F311884EF015
:100120000D0E70470000000006480068006880F36C
:10013000088862B661B6BFF34F8FBFF36F8F00DFE1
:1001400000BF00BF08ED00E0EFF30980BFF36F8F41
:100150000F4B1A6820E9F00F106008B54FF05000FF
:1001600080F31188BFF34F8FBFF36F8F04F0C2FB92
:100170004FF0000080F31188BDE808401968086856
:10018000B0E8F00F80F30988BFF36F8F704700BFAE
:1001900030000020EFF305807047000006488047DC
:1001A00006480047FEE7FEE7FEE7FEE7FEE7FEE75C
:1001B000FEE7FEE7FEE7FEE761370008ED00000816
:1001C000D2B201E000F8012B491EFBD27047002299
:1001D000F6E710B513460A4604461946FFF7F0FF46
:1001E000204610BD0022CBB20178994200D10246D0
:1001F000401C0029F8D11046704730B50B46014627
:1002000000202022012409E021FA02F59D4205D3B5
:1002100003FA02F5491B04FA02F52844151EA2F15F
:100220000102F1DC30BD0000064C074D06E0E0683D
:1002300040F0010394E8070098471034AC42F6D32D
:10024000FFF758FF805B0008A05B000870B504460C
:1002500000252068806800F0010018B320688068DD
:1002600020F001002168886001F0C4FB054613E01E
:1002700001F0C0FB401B02280ED92068806800F006
:10028000010048B1A06A40F01000A062E06A40F0AE
:100290000100E062012070BD2068806800F001006C
:1002A0000028E5D10020F6E770B505466C6AA06A23
:1002B00000F05000E0B9A06A40F40070A06220682D
:1002C000806800F46020B0F5602F0DD1207B58B914
:1002D000A06A20F48070A062A06A00F4805018B96F
:1002E000A06A40F00100A062204600F091FF03E008
:1002F000206A016B2846884770BD70B505466C6A58
:10030000A06A40F04000A062E06A40F00400E062B1
:10031000204600F07FFF70BD70B50446656A284630
:1003200000F077FF70BD000038B5044600250020BE
:1003300000902068806800F0010078BB2068806829
:1003400040F0010021688860194800681949B0FB35
:10035000F1F0009002E00098401E00900098002804
:10036000F9D101F047FB054619E001F043FB401BC2
:10037000022814D92068806800F0010078B9A06ACA
:1003800040F01000A062E06A40F00100E06200BFAF
:10039000002084F8240000BF012038BD05E020685B
:1003A000806800F001000028DFD00020F5E70000A1
:1003B0000C00002040420F0070B50024112221469D
:1003C000641C4B48425422222146641C425433226E
:1003D0002146641C425400222146641C4254454874
:1003E0000088C0F307222146641C4148425441481A
:1003F00002782146641C3E4842543E484088C0F37F
:1004000007222146641C3A4842543A4882782046E2
:10041000611CCCB236490A5436488088C0F30722A2
:100420002046611CCCB232490A5432480279204637
:10043000611CCCB22E490A542E48C088C0F3072252
:100440002046611CCCB22A490A542A4882792046A7
:10045000611CCCB226490A542648027A2046611C07
:10046000CCB223490A540020224908810846827AE6
:100470002046611CCCB21E490A5400201D49488107
:10048000201F1B49C8700025002004E01849095CA2
:100490000D44411CC8B2A042F8DB182D01D901223D
:1004A00000E000222046611CCCB211490A54102DF4
:1004B00001D9012200E000222046611CCCB20C4987
:1004C0000A54082D01D9012200E000222046611CB7
:1004D000CCB207490A542046611CCCB204490D54E1
:1004E00004F0F2F8024802F04DFC04F0FFF870BD91
:1004F000AC340020B001002070B55C213DA0FFF7B6
:1005000071FE28B15C213BA0FFF76CFE401C00E0AF
:1005100038A004460A22214641A003F01FFA5C21BC
:1005200034A0FFF75FFE28B15C2132A0FFF75AFE2E
:10053000401C00E02FA004460C22214642A003F0FC
:100540000DFA03E04FF4FA7001F0A2F802F07EFB1E
:100550000128F7D002F07AFB05465C2125A0FFF7C1
:1005600041FE28B15C2123A0FFF73CFE401C00E0C7
:1005700020A004462B46112221463CA003F0EEF9B0
:100580005C211CA0FFF72EFE28B15C2119A0FFF70B
:1005900029FE401C00E017A00446122221463CA080
:1005A00003F0DCF95C2113A0FFF71CFE28B15C21ED
:1005B00010A0FFF717FE401C00E00EA00446142216
:1005C00021463CA003F0CAF902F0A6FB5C2109A079
:1005D000FFF708FE28B15C2106A0FFF703FE401CD0
:1005E00000E004A00446172221463BA003F0B6F920
:1005F00070BD00002E2E5C4170705C636F6D6D7578
:100600006E69636174696F6E5C4170705F636F6D7A
:100610006D756E69636174696F6E2E630000000012
:100620005B253135733A2534645D202D2D20CDA80E
:10063000D1B6C4A3BFE9B5C4C6F4B6AF2D2DBFAAC9
:10064000CABC0D0A000000005B253135733A253421
:10065000645D202D2D20322E3447C4A3BFE9D7D4AA
:10066000BCEC2D2DBFAACABC0D0A00005B2531359C
:10067000733A2534645D202D2D20322E3447C4A3D7
:10068000BFE9D7D4BCECBDE1B9FB25640D0A00007D
:100690005B253135733A2534645D202D2D20322EB3
:1006A0003447C4A3BFE9D7D4BCEC2D2DBDE1CAF8B3
:1006B0000D0A00005B253135733A2534645D202D29
:1006C0002D20322E3447C9E8D6C3CEAAB7A2CBCD4F
:1006D000C4A3CABD0D0A00005B253135733A253429
:1006E000645D202D2D20CDA8D1B6C4A3BFE9B5C42B
:1006F000C6F4B6AF2D2DBDE1CAF80D0A000000000A
:1007000010B500202E49088048808880C8800024C9
:100710002EE002F0DFF900F063F82948008829494B
:100720000988084400B226490880084641882548BF
:100730004088A0F5FA70084400B221494880084674
:10074000818820488088A0F5FA70084400B21C49CE
:1007500088800846C1881B48C088A0F5FA70084404
:1007600000B21749C8800A2004F002F8601CC4B225
:10077000642CCEDB1248B0F90000642190FBF1F04C
:1007800000B20F4908800846B0F90200642190FBCE
:10079000F1F000B20A4948800846B0F9040064212B
:1007A00090FBF1F000B2064988800846B0F90600D7
:1007B000642190FBF1F000B20149C88010BD000037
:1007C000BC010020B001002010B503F07DFF02F055
:1007D00081F900F005F800F03DF803F087FF10BD47
:1007E0001B48B0F900004FF47A71484340F6FF719E
:1007F00090FBF1F000B2164908800846B0F90200FB
:100800004FF47A71484340F6FF7190FBF1F0C0F568
:100810007A7000B20E4948800846B0F904004FF4DF
:100820007A71484340F6FF7190FBF1F000B208493D
:1008300088800846B0F906004FF47A71484340F6C4
:10084000FF7190FBF1F000B20149C88070470000D1
:10085000B00100203A4800883A490988401A00B29D
:10086000374908800846408836494988401A00B20E
:10087000334948800846808832498988401A00B246
:100880002F4988800846C0882E49C988401A00B27E
:100890002B49C8800846B0F90000B0F57A7F02DB2A
:1008A0004FF47A7009E02648B0F90000002801DC16
:1008B000002002E02248B0F90000214908800846E3
:1008C000B0F90200B0F57A7F02DB4FF47A7009E0EC
:1008D0001B48B0F90200002801DC002002E01848A3
:1008E000B0F90200164948800846B0F90400B0F596
:1008F0007A7F02DB4FF47A7009E01148B0F9040006
:10090000002801DC002002E00D48B0F904000C4989
:1009100088800846B0F90600B0F57A7F02DB4FF414
:100920007A7009E00648B0F90600002801DC0020D2
:1009300002E00348B0F906000149C8807047000092
:10094000B0010020BC01002070B502F0D9F80446C7
:10095000092C67D2DFE804F0664A51585F661E052D
:10096000340003F0B1FEFFF7CBFE03F0BFFE5C21C5
:100970002EA0FFF737FC28B15C212CA0FFF732FC3A
:10098000401C00E029A005466E22294631A002F055
:10099000E5FF48E00120364948815C2123A0FFF7AC
:1009A00021FC28B15C2121A0FFF71CFC401C00E0C9
:1009B0001EA00546742229462EA002F0CFFF32E089
:1009C00001202B4908815C2118A0FFF70BFC28B1FE
:1009D0005C2116A0FFF706FC401C00E013A00546B2
:1009E0007A2229462BA002F0B9FF1CE03048C088CB
:1009F0000A3000B22E49C88015E02D48C0880A3858
:100A000000B22B49C8800EE0294880880A3800B21D
:100A10002749888007E0264880880A3000B22449A8
:100A2000888000E000BF00BF70BD00002E2E5C413A
:100A300070705C646174615F70726F636573735C26
:100A40004170705F4461746150726F636573732E9F
:100A5000630000005B253135733A2534645D202D39
:100A60002D20D0A3D7BCD2A1B8CB0D0A0000000026
:100A7000B00100205B253135733A2534645D202DAB
:100A80002D20B7B4D7AAB6A8B8DFC4A3CABD0D0A33
:100A9000000000005B253135733A2534645D202D5C
:100AA0002D20B9D8BBFAC4A3CABD0D0A00000000AE
:100AB000BC01002010B501F093FF10BD3EB5012030
:100AC0000C230022114600901D2002F0F2FC0120B0
:100AD0000C23024600210090292002F0EAFC0120AC
:100AE0000C23022200210090352002F0E2FC0120BC
:100AF0000C23032200210090412002F0DAFC0120A7
:100B00000C230422002100904D2002F0D2FC012091
:100B10000C23052200210090592002F0CAFC0C2071
:100B200003236F2200210090022002F053FC0120D9
:100B30000C235CA21A210090052002F095FC5B4872
:100B4000B0F90000292190FBF1F0C4B201200C2182
:100B50001A222423CDE9002102901822204600F019
:100B6000B3F85248B0F90000A0F5FA70292190FBC3
:100B7000F1F0C4B201200C211A223023CDE900216A
:100B800002900A46204600F09FF801200C2348A25C
:100B90001A210090452002F067FC4448B0F9060095
:100BA000292190FBF1F0C4B201200C211A22642308
:100BB000CDE9002102901822204600F085F83B483C
:100BC000B0F90600A0F5FA70292190FBF1F0C4B24B
:100BD00001200C211A227023CDE9002102900A463F
:100BE000204600F071F801200C2333A2262100904A
:100BF000052002F039FC2D48B0F90200292190FBB4
:100C0000F1F0C4B201200C2126222423CDE90021D9
:100C100002901822204600F057F82448B0F902004C
:100C2000A0F5FA70292190FBF1F0C4B201200C214B
:100C300026223023CDE9002102900A46204600F00A
:100C400043F801200C231EA226210090452002F02B
:100C50000BFC1648B0F90400292190FBF1F0C4B256
:100C600001200C2126226423CDE9002102901822C4
:100C7000204600F029F80D48B0F90400A0F5FA70FC
:100C8000292190FBF1F0C4B201200C21262270230F
:100C9000CDE9002102900A46204600F015F802F046
:100CA000DBFA3EBD5448523A00000000B00100207B
:100CB000524F4C3A000000005941573A00000000E2
:100CC0005049543A000000002DE9F84F04460E4602
:100CD00090461F46DDE90B5ADDF828900D2C7ED298
:100CE000DFE804F0071019222B343D464F58616AA3
:100CF00074003019C2B22B4649463846009502F0BE
:100D0000D8FB74E03019C2B22B46494638460095EC
:100D100002F0CFFB6BE03019C2B22B464946384691
:100D2000009502F0C6FB62E03019C2B22B4649467C
:100D30003846009502F0BDFB59E03019C2B22B468F
:100D400049463846009502F0B4FB50E03019C2B273
:100D50002B4649463846009502F0ABFB47E0301978
:100D6000C2B22B4649463846009502F0A2FB3EE04F
:100D70003019C2B22B4649463846009502F099FB1D
:100D800035E03019C2B22B4649463846009502F08C
:100D900090FB2CE03019C2B22B46494638460095EC
:100DA00002F087FB23E03019C2B22B464946384691
:100DB000009502F07EFB1AE03019C2B22B4649467C
:100DC0003846009502F075FB11E008E03019C2B218
:100DD0002B4649463846009502F06BFB07E02B4650
:100DE000424649463846009502F063FB00BF00BF0B
:100DF000BDE8F88F10B502F095F910BD7CB500F094
:100E00009DF85C2125A0FFF7EDF928B15C2123A016
:100E1000FFF7E8F9401C00E020A0054633222946F0
:100E200024A002F09BFDFFF767FBFFF743FEFFF7EF
:100E3000E1FF2A480A2100238022CDE9001028A1E1
:100E40002A4803F0BBFD0446012C12D15C2113A0FB
:100E5000FFF7C8F928B15C2110A0FFF7C3F9401CC7
:100E600000E00EA005464722294621A002F076FDAB
:100E700011E05C2109A0FFF7B5F928B15C2107A0BA
:100E8000FFF7B0F9401C00E004A005464B222946BC
:100E900020A002F063FD03F0EFFC7CBD2E2E5C4130
:100EA00070705C7461736B5C4170705F5461736BE4
:100EB0002E6300005B253135733A2534645D202DA7
:100EC0002D20CEDEC8CBBBFA2D2DD2A3BFD8B3F5D3
:100ED000CABCBBAFBFAACABC0D0A0000700000208C
:100EE00073746172745F7461736B0000C9440008AD
:100EF0005B253135733A2534645D202D2D20C6F4F1
:100F0000B6AFC8CECEF1B4B4BDA8B3C9B9A62E2E23
:100F10002E0D0A005B253135733A2534645D202D92
:100F20002D20C6F4B6AFC8CECEF1B4B4BDA8CAA7C2
:100F3000B0DC2E2E2E0D0A0000BFFEE7704730B544
:100F400090F840500124AC40C56B6C60046863604D
:100F50004468102C04D10468A2600468E16003E0D6
:100F60000468A1600468E26030BD704701B582B0DA
:100F70004FF4FA60012301AA02A90090024801F08F
:100F80000FFB9DF804000EBD1001002072B600BFDB
:100F9000FEE70000F8B5044600260020009000BFE0
:100FA00094F82400012801D10220F8BD012084F822
:100FB000240000BF2046FFF749F906462046FFF708
:100FC000B3F90646002E69D1A06A20F4885040F09B
:100FD0000200A062022000F0D5FD34490968B1FB8F
:100FE000F0F04000009002E00098401E0090009851
:100FF0000028F9D12068806840F0080021688860E6
:1010000000F0F8FC054616E000F0F4FC401B0A284E
:1010100011D92068806800F0080060B1A06A20F053
:10102000020040F01000A06200BF002084F82400FD
:1010300000BF0120B9E72068806800F008000028A0
:10104000E2D12068806840F004002168886000F0E8
:10105000D1FC054616E000F0CDFC401B0A2811D952
:101060002068806800F0040060B1A06A20F00200EF
:1010700040F01000A06200BF002084F8240000BFF0
:10108000012092E72068806800F004000028E2D187
:10109000A06A20F0020040F00100A06200BF002022
:1010A00084F8240000BF30467FE700000C000020D9
:1010B00038B5024600230020009000BF92F82400BB
:1010C000012801D1022038BD012082F8240000BF90
:1010D0004868072812D21068406B0C79641E04EB34
:1010E00084051F24AC40A0430D796D1E05EB8505DA
:1010F0000C68AC4020431468606327E048680D2802
:1011000012D21068006B0C79E41F04EB84051F24D5
:10111000AC40A0430D79ED1F05EB85050C68AC4094
:1011200020431468206311E01068C06A0C790D3CFC
:1011300004EB84051F24AC40A0430D790D3D05EB65
:1011400085050C68AC4020431468E06208680A28F2
:1011500012D31068C0680C780A3C04EB44050724DD
:10116000AC40A0430D780A3D05EB45058C68AC40CA
:1011700020431468E0600FE0106800690C7804EB0D
:1011800044050724AC40A0430D7805EB45058C6869
:10119000AC402043146820610868102802D0086819
:1011A000112827D1174C1068A0421ED11068806802
:1011B00000F40000F0B91068806840F40000146882
:1011C000A0600868102815D10F4800680F4CB0FBCC
:1011D000F4F000EB80004000009002E00098401E18
:1011E000009000980028F9D104E0906A40F02000B7
:1011F0009062012300BF002082F8240000BF18463F
:1012000061E70000002401400C00002040420F0074
:1012100070477047704700002DE9F04104460027F1
:1012200000250026A84614B90120BDE8F081A06879
:1012300010B1207D00B100BFA06A30B90020E0628B
:1012400084F82400204600F089F82046FEF7FEFFCF
:101250000746A06A00F01000002873D1002F71D15A
:10126000A06A20F4885040F00200A062E169606842
:101270000843217B40EA41000643A068B0F5807F27
:1012800002D0A068012802D14FF4807000E0002055
:101290000543207D012811D1207B38B9A069401E6B
:1012A0004FF4006141EA4030054307E0A06A40F096
:1012B0002000A062E06A40F00100E062206840681F
:1012C00020F46940284321684860206880682149EB
:1012D0000840304321688860A068B0F5807F02D064
:1012E000A068012802D14FF4807000E00020B0F522
:1012F000807F03D1208A401E4FEA00582068C06AD0
:1013000020F4700040EA08002168C8622068806804
:1013100011490840B04208D10020E062A06A20F0E4
:10132000020040F00100A06211E0A06A20F002007B
:1013300040F01000A062E06A40F00100E062012786
:1013400005E0FFE7A06A40F01000A06201273846E0
:101350006BE70000FDF7E1FFFE0E1FFF10B586B042
:1013600004460020029003900490059022492068D2
:1013700088423ED100BF2148806940F400701F4977
:1013800088610846806900F40070019000BF00BFCA
:1013900000BF0846806940F0040088610846806903
:1013A00000F00400019000BF00BF0F200290032056
:1013B000039002A9124800F07FF912481249086010
:1013C000002048600021104881608021C1604900F0
:1013D000016189004161202181610021C16100F02A
:1013E000D5F808B1FFF7D2FD00BF0748206244627C
:1013F00000BF06B010BD00000024014000100240F4
:101400000008014008000240CC0000202DE9F04116
:1014100004460D461646002757492068884203D0E7
:1014200056492068884205D15348001D006800F4E1
:10143000702000E0002000287ED100BF94F8240036
:10144000012802D10220BDE8F081012084F82400A7
:1014500000BF2046FEF768FF0746002F6DD1A06A47
:1014600040F60161884340F48070A06243492068DF
:10147000884209D14048001D006800F4702008B976
:10148000012002E0002000E0012078B1A06A20F4F1
:101490008010A0622068406800F4806000B3A06AF9
:1014A00020F4005040F48050A06219E0A06A40F49B
:1014B0008010A06230492068884203D02F492068FC
:1014C000884205D12C48001D006800F4806000E0CF
:1014D000002028B1A06A20F4005040F48050A0629F
:1014E000A06A00F4805020B1E06A20F00600E062BB
:1014F00001E00020E06200BF002084F8240000BF6B
:101500001F48216A88621F48216AC8621E48216AF2
:1015100008636FF00200216808602068806840F46A
:10152000807021688860226802F14C0133462A46A7
:10153000206A00F05FF801E01AE014E0206880689B
:1015400000F46020B0F5602F06D12068806840F478
:10155000A000216888600CE02068806840F480105A
:101560002168886005E000BF002084F8240000E0C6
:101570000127384667E700000024014000280140A9
:10158000A902000819030008FB0200080146002216
:1015900009B901207047164B0868C01A1423B0FB24
:1015A000F3F08000086412480838C863022081F80C
:1015B00021000868026843F6F0708243D1E9010314
:1015C0001843CB6818430B6918434B6918438B6960
:1015D0001843CB69184302430868026000208863FF
:1015E000012081F82100002081F8200000BFD1E710
:1015F000080002402DE9F04104460D4616461F46FC
:101600004FF0000800BF94F82000012802D102200A
:10161000BDE8F081012084F8200000BF94F821008B
:1016200001282CD1022084F821000020A06320682A
:10163000006820F00100216808603B4632462946D8
:101640002046FFF77CFCE06A30B12068006840F07B
:101650000E00216808600BE02068006820F004009C
:10166000216808602068006840F00A00216808606E
:101670002068006840F001002168086006E000BFB3
:10168000002084F8200000BF4FF002084046BFE76A
:1016900070B5044600F0AEF906462546681C10B148
:1016A00004480078054400BF00F0A4F9801BA8425C
:1016B000FAD370BD080000202DE9F8470346002248
:1016C00094466EE14FF0010808FA02F4D1F8008068
:1016D00008EA0400A0427DD1DFF8DCA2D1F8048042
:1016E000A8EB0A09D0453AD014DCB8F1030F50D06A
:1016F00009DCB8F1000F31D0B8F1010F1CD0B8F1FE
:10170000020F49D120E0B8F1110F18D0B8F1120F33
:1017100042D11EE0B9F5881F25D006DCB9F5803F1F
:1017200020D0B9F5801F37D11AE0B9F5001F18D0C5
:10173000B9F5041F30D117E0D1F80CC02DE0D1F875
:101740000C8008F1040C28E0D1F80C8008F1080C9A
:1017500023E0D1F80C8008F10C0C1EE000BF00BFA4
:1017600000BF00BF00BF00BFD1F80880B8F1000F74
:1017700002D14FF0040C0BE0D1F80880B8F1010F52
:1017800003D14FF0080C1C6102E04FF0080C5C61C3
:1017900003E04FF0000C00E000BF00BFFF2801D8BD
:1017A000984601E003F104084646FF2802D84FEAB4
:1017B000820803E0A2F108084FEA88084746D6F8F5
:1017C00000804FF00F0909FA07F928EA09080CFA16
:1017D00007F900E088E048EA0908C6F80080D1F877
:1017E000048008F08058B8F1805F7DD100BFDFF839
:1017F000CC81D8F8188048F00108DFF8C091C9F80A
:101800001880C846D8F8188008F00108CDF8008084
:1018100000BF00BF4FEAB9384FEA920958F8295083
:101820004FEA82784FEA18794FF00F0808FA09F862
:1018300025EA0805DFF88881434502D14FF000080A
:1018400016E0DFF88081434502D14FF001080FE038
:10185000DFF87481434502D14FF0020808E0DFF859
:101860006C81434502D14FF0030801E04FF00408BA
:101870004FEA82794FEA197908FA09F848EA05052A
:10188000DFF84C814FEA920948F82950D1F80480DA
:1018900008F48018B8F5801F0AD1DFF83881D8F82D
:1018A000008048EA0008DFF82C91C9F8008009E0C0
:1018B000DFF82081D8F8008028EA0008DFF81491CA
:1018C000C9F80080D1F8048008F40018B8F5001FAA
:1018D00010D1DFF8008108F10408D8F8008048EA48
:1018E0000008DFF8F09000E05AE009F10409C9F8B7
:1018F00000800DE0DFF8DC8008F10408D8F80080F3
:1019000028EA0008DFF8CC9009F10409C9F8008042
:10191000D1F8048008F40038B8F5003F0ED1DFF8A4
:10192000B480A8F10408D8F8008048EA0008DFF87D
:10193000A490A9F10409C9F800800DE0DFF89480B3
:10194000A8F10408D8F8008028EA0008DFF884909D
:10195000A9F10409C9F80080D1F8048008F480389E
:10196000B8F5803F0ED1DFF86C80A8F10808D8F8F0
:10197000008048EA0008DFF85C90A9F10809C9F87E
:1019800000800DE0DFF84C80A8F10808D8F800804E
:1019900028EA0008DFF83C90A9F10809C9F800809E
:1019A000521CD1F8008028FA02F8B8F1000F7FF439
:1019B00089AEBDE8F8870000000011100010024059
:1019C00000080140000C01400010014000140140DB
:1019D0000800014008040140024693680B400BB127
:1019E000012000E0002070470AB1016101E00B0412
:1019F0000361704701480068704700000000002044
:101A000003480068034909780844014908607047A1
:101A1000000000200800002010B50848006840F0D1
:101A2000100006490860032000F098F80F2000F02D
:101A300007F800F02BF8002010BD00000020024045
:101A400070B504460E4800784FF47A71B1FBF0F09F
:101A50000C490968B1FBF0F5284600F0C5FE08B155
:101A6000012070BD102C07D200222146501E00F02C
:101A700037F80548046001E00120F2E70020F0E7B4
:101A8000080000200C0000200400002008B500BF62
:101A90001148806940F001000F498861084680695B
:101AA00000F00100009000BF00BF00BF0846C06901
:101AB00040F08050C8610846C06900F08050009036
:101AC00000BF00BF00BF0549486820F0E06040F05B
:101AD0000070486000BF08BD0010024000000140D7
:101AE0002DE9F05F80460D461646002701F046FFBF
:101AF000074639462A46334601F00700C0F1070A77
:101B0000BAF1040F02D94FF0040A01E0C0F1070A4C
:101B1000D14600F1040ABAF1070F02D24FF0000AD1
:101B200001E0A0F1030AD4464FF0010A0AFA09FACB
:101B3000AAF1010A0AEA020A0AFA0CFA4FF0010BAA
:101B40000BFA0CFBABF1010B0BEA030B4AEA0B049B
:101B50002146404601F01AFFBDE8F09F00BF00F0AB
:101B60000702064B19684FF6FF031940044B0B435D
:101B700043EA0221014B196000BF70470CED00E001
:101B80000000FA052DE9F04706464FF00008002551
:101B900000270024A146012E31D0022E56D0102E4F
:101BA0005FD132484468006800F0807008B3304864
:101BB000C4F38341475C04F4803078B12B4840681B
:101BC000C0F340402B4911F8008004F4803040B14C
:101BD0002948B0FBF8F000FB07F502E0274807FBB7
:101BE00000F52248406800F48000B0F5800F01D174
:101BF000A94603E068000321B0FBF1F932E01B487D
:101C0000046A04F44070B0F5807F05D104F002004E
:101C100010B14FF4004918E004F44070B0F5007FB3
:101C200007D11248406A00F0020010B149F640495D
:101C30000BE004F44070B0F5407F06D10B4800681B
:101C400000F4003008B14FF224490BE000F08CF9A9
:101C500006494968C1F38131491C4900B0FBF1F9DB
:101C600000E000BF00BF4846BDE8F087001002401A
:101C7000C24D0008D24D000800127A0000093D0054
:101C8000F8B5044600260025207800F00100002861
:101C90006BD000274348C06900F0805070B900BF86
:101CA0004048C06940F080503E49C8610846C0695C
:101CB00000F08050009000BF00BF01273A48006844
:101CC00000F48070B0B93848006840F4807036493C
:101CD0000860FFF78FFE064606E0FFF78BFE801BCD
:101CE000642801D90320F8BD2F48006800F48070F3
:101CF0000028F2D02B48006A00F440752DB3A0886C
:101D000000F44070A84220D02648006A20F44075B4
:101D1000012026490860002008602248056205F07D
:101D2000010090B1FFF766FE064608E0FFF762FE8D
:101D3000801B41F28831884201D90320D3E719483A
:101D4000006A00F002000028F0D01648006A20F473
:101D500040706168084313490862012F04D10846A6
:101D6000C06920F08050C86100BF207800F00200F8
:101D7000022807D10B48406820F44040A16808437E
:101D800008494860207800F01000102807D1054865
:101D9000406820F48000E168084302494860002060
:101DA000A1E70000001002400070004040044242E1
:101DB00070B504460D460CB9012070BD5A48006844
:101DC00000F00700A8420ED25748006820F0070034
:101DD0002843554908600846006800F00700A842FB
:101DE00001D00120E9E7207800F0020002281DD18F
:101DF000207800F00400042805D14C48406840F4E5
:101E0000E0604A494860207800F00800082805D1C1
:101E10004648406840F46050444948604348406840
:101E200020F0F000A168084340494860207800F0A5
:101E3000010078B36068012806D13C48006800F4CE
:101E4000003090B90120B8E76068022806D1374811
:101E5000006800F0007040B90120AEE73348006828
:101E600000F0020008B90120A7E73048406820F0E0
:101E70000300616808432D494860FFF7BBFD064633
:101E800009E0FFF7B7FD801B41F28831884202D993
:101E9000032092E707E02548406800F00C006168E5
:101EA000B0EB810FEDD12048006800F00700A84298
:101EB0000ED91D48006820F0070028431A49086021
:101EC0000846006800F00700A84201D0012074E72E
:101ED000207800F00400042807D11448406820F45A
:101EE000E060E168084311494860207800F008008C
:101EF000082808D10D48406820F46050216940EA64
:101F0000C1000A49486000F03FF808494968C1F338
:101F10000311074A515CC84006490860064800683A
:101F2000FFF78EFD002048E700200240001002402D
:101F3000D44D00080C000020040000200148006877
:101F4000704700000C00002000B5FFF7F7FF0449C0
:101F50004968C1F30221034A515CC84000BD00003A
:101F600000100240E44D000800B5FFF7E7FF044908
:101F70004968C1F3C221034A515CC84000BD00005A
:101F800000100240E44D000870B50021002200243A
:101F900000230020134D696801F00C05F5B1042DF4
:101FA00002D0082D19D101E00F4819E00F4DC1F3FF
:101FB0008346AB5D01F4803555B10A4D6D68C5F3BC
:101FC00040450B4E725D084D5D43B5FBF2F402E0F7
:101FD000084D03FB05F4204602E000BF024800BFA5
:101FE00000BF70BD0010024000127A00B04D000822
:101FF000C04D000800093D00F8B504460CB90120A9
:10200000F8BD207800F00100002878D0F84840683A
:1020100000F00C0004280CD0F548406800F00C00DB
:10202000082811D1F248406800F48030B0F5803FB4
:102030000AD1EF48006800F4003000285FD06068E3
:1020400000285CD10120DBE700BF6068B0F5803F6D
:1020500006D1E748006840F48030E549086028E090
:10206000606858B9E248006820F48030E0490860B0
:102070000846006820F4802008601AE06068B0F527
:10208000A02F0BD1DA48006840F48020D8490860BE
:102090000846006840F4803008600AE0D4480068D0
:1020A00020F48030D24908600846006820F480207F
:1020B000086000BF606888B1FFF79CFC054606E039
:1020C000FFF798FC401B642801D9032098E7C84813
:1020D000006800F400300028F2D010E0FFF78AFC1E
:1020E000054606E0FFF786FC401B642801D9032063
:1020F00086E7BF48006800F400300028F2D120785D
:1021000000F00200022857D1B948406800F00C00E6
:1021100050B1B748406800F00C00082818D1B44806
:10212000406800F4803098B9B148006800F00200BF
:1021300020B12069012801D0012061E7AC48006886
:1021400020F0F800616940EAC100A949086033E065
:102150002069E8B10120A7490860FFF74BFC05465C
:1021600006E0FFF747FC401B022801D9032047E7A0
:102170009F48006800F002000028F2D09C480068E8
:1021800020F0F800616940EAC1009949086013E055
:10219000002098490860FFF72DFC054606E0FFF790
:1021A00029FC401B022801D9032029E79048006838
:1021B00000F002000028F2D1207800F00800082882
:1021C0002DD1A069B8B101208B490860FFF712FC3E
:1021D000054606E0FFF70EFC401B022801D903204C
:1021E0000EE78348406A00F002000028F2D0012088
:1021F00001F0C8F913E000207F490860FFF7FAFBFF
:10220000054606E0FFF7F6FB401B022801D9032034
:10221000F6E67748406A00F002000028F2D1207804
:1022200000F00400042873D100277148C06900F051
:10223000805070B900BF6E48C06940F080506C4952
:10224000C8610846C06900F08050009000BF00BF20
:1022500001276A48006800F48070B0B967480068D8
:1022600040F4807065490860FFF7C4FB054606E04E
:10227000FFF7C0FB401B642801D90320C0E65F487C
:10228000006800F480700028F2D000BFE0680128E8
:1022900006D15748006A40F001005549086227E01E
:1022A000E06858B95248006A20F0010050490862BD
:1022B0000846006A20F00400086219E0E06805287A
:1022C0000BD14B48006A40F00400494908620846B7
:1022D000006A40F0010008620AE04548006A20F008
:1022E0000100434908620846006A20F004000862C1
:1022F00000BFE068A0B1FFF77DFB054609E0FFF7EE
:1023000079FB401B41F28831884202D9032077E6ED
:1023100022E03748006A00F002000028EFD012E007
:10232000FFF768FB054608E0FFF764FB401B41F23E
:102330008831884201D9032062E62D48006A00F006
:1023400002000028F0D1012F05D12948C06920F0F2
:1023500080502749C86100BFE069C8B3244840687D
:1023600000F00C00082860D0E069022848D1002065
:1023700020490866FFF73EFB054606E0FFF73AFBFB
:10238000401B022801D903203AE61948006800F0F2
:1023900000700028F2D1206AB0F5803F07D11448C0
:1023A000406820F40030A168084311494860D4E92E
:1023B000080108430E49496821F4741108430C4987
:1023C000486001200B490866FFF714FB054607E04B
:1023D0003DE0FFF70FFB401B022801D903200FE669
:1023E0000348006800F000700028F2D02FE00000E1
:1023F000001002400000424280044242007000404F
:10240000002014490866FFF7F5FA054606E0FFF7D5
:10241000F1FA401B022801D90320F1E50E480068BB
:1024200000F000700028F2D111E0E069012800D12D
:10243000E6E50948466806F48031206A814204D105
:1024400006F47011606A814201D00120D8E50020B5
:10245000D6E50000000042420010024010B50446DC
:102460000CB9012010BD606A38B96068B0F5827F90
:1024700000D105E00021E16102E0002121616161FC
:102480000021A16294F8510028B9002084F850007E
:10249000204600F043F8022084F8510020680068CC
:1024A00020F0400021680860A08800F48270218933
:1024B00001F404410843A18901F400610843217C2F
:1024C00001F002010843217D01F001010843218B45
:1024D00001F400710843217F01F0380108432021F5
:1024E000095D01F080010843218D01F4005108438A
:1024F000216808600421A06901EA10402168486051
:102500002068C06920F400602168C861002060650F
:10251000012084F851000020A4E7000010B586B027
:102520000446002002900390049005901949206809
:1025300088422DD100BF1848806940F48050164968
:1025400088610846806900F48050019000BF00BF98
:1025500000BF0846806940F0040088610846806931
:1025600000F00400019000BF00BFA02002900220F4
:1025700003900320059002A90848FFF79DF840202A
:10258000029000200390049002A90448FFF794F8F9
:1025900006B010BD003001400010024000080140AC
:1025A0002DE9FE4F04460F4690461D460C9E012025
:1025B0000190FFF71FFA814694F851B060680290CD
:1025C000AA46BBF1010F0BD00298B0F5827F04D16F
:1025D000A06810B9BBF1040F02D00220BDE8FE8F45
:1025E0001FB1B8F1000F00D00DB90120F6E700BF10
:1025F00094F85000012801D10220EFE7012084F86F
:10260000500000BF94F85100042802D0052084F83F
:10261000510000206065C4F83880E587A5872763EE
:10262000E586A586206460642068006800F04000AC
:10263000402805D02068006840F04000216808600C
:10264000E068B0F5006F52D1606810B1BAF1010FC7
:1026500009D1206B00882168C860206B801C206332
:10266000E08E401EE0863BE02068806800F00200BB
:10267000022810D1E08E70B1019801280BD1206B97
:1026800000882168C860206B801C2063E08E401E9B
:10269000E086002001902068806800F0010068B1A9
:1026A000E08F58B12068C068A16B0880A06B801CC7
:1026B000A063E08F401EE08701200190FFF79AF9A8
:1026C000A0EB0900B0420BD3701C48B1012084F884
:1026D000510000BF002084F8500000BF03207DE7B8
:1026E000E08E0028C0D1E08F0028BDD152E06068A4
:1026F00010B1BAF1010F09D1206B0078216808737D
:10270000206B401C2063E08E401EE0863CE0206889
:10271000806800F00200022810D1E08E70B10198AC
:1027200001280BD1206B007821680873206B401CB6
:102730002063E08E401EE0860020019020688068C3
:1027400000F0010068B1E08F58B12068C068A16B4B
:102750000870A06B401CA063E08F401EE087012042
:102760000190FFF747F9A0EB0900B04201D3701CBC
:1027700000B94EB9012084F8510000BF002084F850
:10278000500000BF032029E7E08E0028BFD1E08F72
:102790000028BCD14A463146204600F007FF40B130
:1027A0002020606500BF002084F8500000BF012099
:1027B00014E7A06850B900BF002000902068C068EE
:1027C000009020688068009000BF00BF012084F85E
:1027D000510000BF002084F8500000BF606D08B1B8
:1027E0000120FBE60020F9E670B504462546681E88
:1027F000B0F1807F01D301200FE0681E4FF0E0218F
:1028000048610F214FF0FF3001F0C0F800204FF079
:10281000E021886107200861002070BD10B50446E2
:102820000CB9012010BDA06900B100E000BF94F810
:10283000410028B9002084F84000204600F02AF822
:10284000242084F841002068C06820F400502168EA
:10285000C860204600F0BCFF2068006920F490406A
:10286000216808612068406920F02A0021684861D9
:102870002068C06840F400502168C860002060648F
:10288000202084F8410084F842000020606300BFEB
:10289000C8E7000010B586B00446002002900390FF
:1028A000049005901A49206888422ED100BF19482B
:1028B000806940F48040174988610846806900F4C7
:1028C0008040019000BF00BF00BF0846806940F013
:1028D000040088610846806900F00400019000BF90
:1028E00000BF48150290022003900320059002A922
:1028F0000948FEF7E1FE4FF480600290002003904B
:10290000049002A90448FEF7D7FE06B010BD0000EF
:102910000038014000100240000801402DE9F84F46
:1029200004460E46174699464FF0000A94F84100B7
:10293000202850D106B117B90120BDE8F88F00203A
:102940006064212084F84100FFF754F88246A78490
:10295000E784A068B0F5805F04D1206910B9002534
:10296000B04602E035464FF000081EE05346002214
:1029700080212046CDF8009000F0A8FF20B1202053
:1029800084F841000320D8E745B9B8F80000C0F347
:1029900008002168486008F1020803E028782168EF
:1029A00048606D1CE08C401EE084E08C0028DDD186
:1029B0005346002240212046CDF8009000F086FFCB
:1029C00020B1202084F841000320B6E7202084F8BD
:1029D00041000020B1E70220AFE700BFFEE70000A2
:1029E00010B55C2115A0FDF7FDFB28B15C2113A0FB
:1029F000FDF7F8FB401C00E010A00446132221461E
:102A00001AA000F0ABFF2548FEF7C4FA04222449BF
:102A10002248FEF7FBFC5C2108A0FDF7E3FB28B190
:102A20005C2106A0FDF7DEFB401C00E003A004468D
:102A30001B2221461BA000F091FF10BD2E2E5C49E9
:102A40006E746572666163655C4A6F7973746963FD
:102A50006B5F4B65795C496E665F4A6F7953746949
:102A6000636B416E644B65792E6300005B253135E5
:102A7000733A2534645D202D2D20D2A1B8CBBACD78
:102A8000B0B4BCFCCAFDBEDDB5C4B3F5CABCBBAFB7
:102A90002D2DBFAACABC0D0A000000009C0000201A
:102AA000900000205B253135733A2534645D202D7C
:102AB0002D20D2A1B8CBBACDB0B4BCFCCAFDBEDDCE
:102AC000B5C4B3F5CABCBBAF2D2DBDE1CAF80D0A24
:102AD000000000000848408800B208490880064805
:102AE000008800B248800448C08800B2888002484C
:102AF000808800B2C880704790000020B00100209C
:102B000010B510215048FEF767FFD0B140214E4864
:102B1000FEF762FFA8B108214B48FEF75DFF80B1C8
:102B200020214948FEF758FF58B14FF480714648BC
:102B3000FEF752FF28B180214348FEF74DFF0028E1
:102B40007FD11E2001F014FE10213F48FEF744FF04
:102B500040B900BF10213C48FEF73EFF0028F9D0E5
:102B6000012010BD40213848FEF736FF40B900BFB4
:102B700040213548FEF730FF0028F9D00220F0E769
:102B800008213148FEF728FF40B900BF08212E4830
:102B9000FEF722FF0028F9D00320E2E720212A488F
:102BA000FEF71AFF40B900BF20212748FEF714FFA7
:102BB0000028F9D00420D4E74FF480712248FEF7B2
:102BC0000BFFE0B9002404E0601C84B2642001F033
:102BD000CFFD4FF480711C48FEF7FEFE08B90C2CA7
:102BE000F2DB052C01DC0520BBE700BF4FF4807150
:102BF0001548FEF7F1FE0028F8D00720B1E7802144
:102C00001148FEF7E9FED8B9002404E0601C84B244
:102C1000642001F0ADFD80210B48FEF7DDFE08B910
:102C20000C2CF3DB052C02DC06209AE709E000BF40
:102C300080210548FEF7D0FE0028F9D0082090E753
:102C400000BF00208DE70000000C01401FB513A15C
:102C500003C9CDE902010020009001900024052263
:102C600002A9302000F0C2F805226946102000F0C9
:102C700019F8002009E01DF8001002AA125C914228
:102C800001D1611CCCB2411CC8B20528F3DB052C74
:102C900002D1002004B010BD0120FBE7A5A5A5A529
:102CA000A50000002DE9F04107460C46154600221C
:102CB00010210C48FEF798FE3846FEF757F900261B
:102CC00006E00020FEF752F904F8010B701CC6B2B2
:102CD000AE42F6DB012210210248FEF785FE0020FD
:102CE000BDE8F0810008014070B5044600250022CF
:102CF00010210848FEF778FE2046FEF737F900203D
:102D0000FEF734F90546012210210248FEF76CFE59
:102D1000284670BD0008014010B500224FF4004164
:102D20001548FEF761FE05221449302000F05EF8D8
:102D3000052213492A2000F059F80121212000F032
:102D400079F80121222000F075F80A21242000F0F2
:102D500071F86F21252000F06DF80F21262000F07A
:102D600069F80E21202000F065F80122D103024805
:102D7000FEF73AFE10BD000000080140840000206C
:102D80008900002070B50546002400224FF4004160
:102D90001548FEF729FE12222946A02000F026F849
:102DA0000122D1031048FEF71FFE03E00720FFF7C2
:102DB0009BFF044604F030000028F7D0214627206E
:102DC00000F038F804F0100030B104F0010018B140
:102DD000FF21E12000F02EF804F0200008B10020CF
:102DE00070BD0120FCE70000000801402DE9F04122
:102DF00007460C4615464FF00008002210210C48EB
:102E0000FEF7F2FD3846FEF7B1F88046002605E0F1
:102E100014F8010BFEF7AAF8701CC6B2AE42F7DB3D
:102E2000012210210248FEF7DFFD4046BDE8F08197
:102E30000008014070B505460C460026002210210E
:102E40000848FEF7D1FD2846FEF790F806462046D2
:102E5000FEF78CF8012210210248FEF7C5FD30462E
:102E600070BD0000000801400EB5002000900190E8
:102E7000029023482349086081152248816001217E
:102E80000173002101754FF46021C16100201D49CB
:102E9000486004211B480161FEF7BEF908B1FEF746
:102EA00075F80020009001200190022002906946F0
:102EB0001448FEF7FDF808B1FEF768F8012000900D
:102EC0000220019069460F48FEF7F2F808B1FEF7BC
:102ED0005DF8022000900320019069460948FEF742
:102EE000E7F808B1FEF752F80320009004200190A3
:102EF00069460448FEF7DCF808B1FEF747F80EBD56
:102F0000002401409C00002008B500BF064840692D
:102F100040F00100044948610846406900F00100A2
:102F2000009000BF00BF08BD0010024000B585B092
:102F30000020019002900390049000BF2F48806908
:102F400040F010002D4988610846806900F01000AB
:102F5000009000BF00BF00BF0846806940F020001D
:102F600088610846806900F02000009000BF00BF23
:102F700000BF0846806940F0040088610846806907
:102F800000F00400009000BF00BF00BF0846806949
:102F900040F0080088610846806900F00800009051
:102FA00000BF00BF012248F210011548FEF71CFDCA
:102FB00048F21000019001200290002003900220AE
:102FC000049001A90E48FEF777FB4FF48070019042
:102FD000002002900120039001A90948FEF76CFB34
:102FE0004FF4FC700190002002900120039001A991
:102FF0000448FEF761FB05B000BD00000010024070
:1030000000080140000C014010B50E480E49086050
:103010004FF48270486000210B488160C1600161FB
:1030200041614FF4007181610821C1610021016299
:10303000416281620A21C162FFF710FA08B1FDF70F
:10304000A5FF10BD003001401001002010B50B4855
:103050000B4908604FF4E130486000210848816066
:10306000C16001610C21416100218161C161FFF7F3
:10307000D5FB08B1FDF78AFF10BD00000038014004
:103080006801002000BFFEE700BFFEE770B5002426
:103090000CE0002506E00020074901EBC5010855BA
:1030A000681CC5B2802DF6DB601CC4B2082CF0DBB6
:1030B00000F0D2F870BD0000D0340020F0B5144606
:1030C00000267F2801DC3F2900DDF0BD0B46CF172D
:1030D00001EB5777FF10C7F10707FAB2CF1701EBE3
:1030E0005777FF10A1EBC707FDB2C5F10707012312
:1030F000BB40DEB24CB10A4B03EBC0039B5C3343D5
:10310000074F07EBC007BB5408E0054B03EBC003B8
:103110009B5CB343024F07EBC007BB5400BFD4E72F
:10312000D03400201FB50020009001900290039041
:1031300000224FF400514748FEF756FC01224FF49D
:1031400050414448FEF750FC4FF47040009001207D
:103150000190002002900320039069463D48FEF74D
:10316000ABFA00224FF480413A48FEF73DFC642060
:10317000FEF78EFA012291033648FEF735FC002156
:10318000AE2000F0B9F90021084600F0B5F90021A1
:10319000102000F0B1F90021402000F0ADF900212D
:1031A000812000F0A9F90021CF2000F0A5F900212D
:1031B000A12000F0A1F90021C02000F09DF900211C
:1031C000A62000F099F90021A82000F095F900212F
:1031D0003F2000F091F90021D32000F08DF900216B
:1031E000084600F089F90021D52000F085F900217A
:1031F000802000F081F90021D92000F07DF9002124
:10320000F12000F079F90021DA2000F075F90021B1
:10321000122000F071F90021DB2000F06DF900218F
:10322000302000F069F90021202000F065F900212C
:10323000022000F061F900218D2000F05DF90021ED
:10324000142000F059F9FFF721FF0021AF2000F012
:1032500053F91FBD000C014070B500241CE004F1BF
:10326000B001C8B2002100F047F90021084600F083
:1032700043F90021102000F03FF9002508E008493B
:1032800001EBC501085D012100F036F9681CC5B2EB
:10329000802DF4DB601CC4B2082CE0DB70BD0000A4
:1032A000D03400202DE9F04F07460C4690461D46CD
:1032B000A346002634E008EB48001B4901EB8000E0
:1032C00010F806904FF0000A24E009F0800028B1C1
:1032D00021463846099AFFF7F1FE09E0099808B936
:1032E000012000E00020024621463846FFF7E6FEB6
:1032F0004FEA49604FEA1069601CC4B2A4EB0B00AE
:10330000A84203D15C46781CC7B206E00AF101006E
:1033100000F0FF0ABAF1080FD7DB00BF701CC6B27D
:10332000AE42C8DBBDE8F08F505800082DE9F04FE1
:1033300080460C4615461E46A346A5F12000C5B2A0
:1033400000273EE00C2E07D105EB45001F4901EB9D
:10335000800010F8079004E01D4800EB051010F8FD
:1033600007904FF0000A26E009F0800028B12146BE
:103370004046099AFFF7A2FE09E0099808B9012022
:1033800000E00020024621464046FFF797FE4FEA44
:1033900049604FEA1069601CC4B2A4EB0B00B04254
:1033A00005D15C4608F1010000F0FF0806E00AF1D3
:1033B000010000F0FF0ABAF1080FD5DB00BF781C4E
:1033C000C7B2B742BEDBBDE8F08F0000EC4D00088D
:1033D000605200082DE9FF4F81B0074691461E4616
:1033E0000E9D4FF0000A002439E0301B401EC1B290
:1033F0000A2000F0B9FDB9FBF0F00A21B0FBF1F2B0
:1034000001FB1208BAF1000F16D1701EA04213DDA5
:10341000B8F1000F0ED10120AB4605EBDB7149106E
:1034200001FB04710090C8B22B4620220299FFF7DD
:103430007DFF12E04FF0010A0120AB4605EBDB7186
:10344000491001FB04710090C8B208F13001CAB202
:103450002B460299FFF76AFF00BF601CC4B2B4425A
:10346000C3DB05B0BDE8F08F2DE9F84105460E46F7
:1034700014461F46DDF81C8016E07A2D03DD00257A
:1034800006F11000C6B23A2E02DD002005460646BF
:10349000CDF8008022783B4631462846FFF746FFAC
:1034A00005F10800C5B2641C20780028E5D1BDE80C
:1034B000F8812DE9F84306460F4614461D46DDF80F
:1034C0002090012000906006020E2B4639463046BF
:1034D000FFF7E8FE0120A84605EBD87106EB610175
:1034E0000090C8B2012101EB4401CAB22B46394613
:1034F000FFF7D8FEBDE8F88370B504460E462EB13E
:10350000012211031D48FEF76FFA05E000224FF477
:1035100080511A48FEF768FA002210211848FEF779
:1035200063FA00251DE000224FF400511348FEF716
:103530005BFA04F0800028B10122D1030F48FEF7A6
:1035400053FA05E000224FF400410C48FEF74CFA14
:10355000012251030948FEF747FA6006040E681C71
:10356000C5B2082DDFDB012210210548FEF73CFA29
:10357000012211030148FEF737FA70BD000C01402B
:103580000008014008B508490968C9084FF47A7273
:10359000B1FBF2F14143009100BF00BF00994A1E08
:1035A00000920029F9D108BD0C000020F8B50446AE
:1035B0000E4615463346012202212046009500F0B2
:1035C00017F828B1606D40F0200060650320F8BD59
:1035D0003346002280212046009500F009F828B1EA
:1035E000606D40F0200060650320F0E70020EEE70A
:1035F0002DE9F84F04460D4690461E46DDF828900A
:10360000FEF7F8F9A0EB0900371AFEF7F3F9824646
:103610002C480068C0F3CB307843009045E0701C24
:10362000002842D0FEF7E6F9A0EB0A00B84200D22B
:10363000A7BB2068406820F0E0002168486060680F
:10364000B0F5827F0DD1A068B0F5004F03D0A0681F
:10365000B0F5806F05D12068006820F04000216837
:103660000860A06AB0F5005F0DD100BF2068006857
:1036700020F40050216808602068006840F4005081
:103680002168086000BF012084F8510000BF0020BD
:1036900084F8500000BF0320BDE8F88FFFE70098D2
:1036A00000B900270098401E0090206880682840DC
:1036B000A84201D1012000E000204045AFD1002008
:1036C000EAE700000C00002010B5FEF799F901F0C0
:1036D000E3F9012801D001F057F910BD00B593B00E
:1036E000282109A8FCF773FD142104A8FCF76FFD3D
:1036F00000200090019002900390012009900004A6
:103700000A9000200B9001200D9002201090C10320
:1037100011914FF4E011129109A8FEF76DFC08B168
:10372000FDF734FC0F200490022005900020069045
:103730004FF48060079000200890022104A8FEF753
:1037400037FB08B1FDF722FC0220009080030290B5
:103750006846FEF795FA08B1FDF718FC13B000BDF6
:10376000704700BF00BF02680C3252E8002F22F4FD
:10377000907102680C3242E80013002BF3D100BFB5
:1037800000BF00BF0268143252E8002F22F001018E
:103790000268143242E80013002BF3D100BF016B22
:1037A00001290ED100BF00BF02680C3252E8002F81
:1037B00022F0100102680C3242E80013002BF3D112
:1037C00000BF202180F842100021016370470000F3
:1037D00070B504462168096921F44051E26811433B
:1037E000226811612269A1681143626941EA0205F8
:1037F0002168C96841F20C62914329432268D16073
:103800002168496921F44071A2691143226851611C
:103810002D4A2168914202D1FEF7A6FB01E0FEF796
:1038200093FB00EBC00101EB001162689200B1FB59
:10383000F2F100EBC00202EB001263689B00B2FBE6
:10384000F3F26423B2FBF3F202EBC20303EB0212C6
:10385000A1EB8201322202EB01116422B1FBF2F1F1
:1038600001F0F00100EBC00202EB001263689B0064
:10387000B2FBF3F26423B2FBF3F201EB021200EBB2
:10388000C00101EB001163689B00B1FBF3F100EB99
:10389000C00303EB00136668B600B3FBF6F36426BF
:1038A000B3FBF6F303EBC30606EB0313A1EB8301B3
:1038B000322303EB01116423B1FBF3F101F00F019B
:1038C00011442268916070BD003801402DE9F84331
:1038D00004460D4617469846089E31E0701C70B3AA
:1038E000FEF788F8A0EB0800B04200D816B9032014
:1038F000BDE8F8832068C06800F00400F8B1802DAE
:103900001ED0402D1CD020680068C0F3C000B0B1AC
:1039100000BF002000902068006800902068406888
:10392000009000BF00BF2046FFF71BFF0820606427
:1039300000BF002084F8400000BF0120D8E7FFE767
:10394000206800682840A84201D1012000E0002042
:10395000B842C3D00020CBE700BFFEE70FB4054B51
:1039600010B503A9044A029800F034F810BC5DF8C1
:1039700014FB0000193E000898000020024800686F
:10398000C0F30220704700000CED00E010B50028E5
:1039900004DB0A07130E054A135406E00A07140E47
:1039A000034A00F00F031B1FD45410BD00E400E0D5
:1039B00018ED00E002E008C8121F08C1002AFAD181
:1039C00070477047002001E001C1121F002AFBD19F
:1039D000704700002DE9FF4F8BB088460546002652
:1039E00006E025280BD0DDE90D1290476D1C761CF2
:1039F00028780028F5D10FB03046BDE8F08F0024BC
:103A0000A146A2460122AE4900E0044315F8013F59
:103A1000203B02FA03F00842F7D128782A2810D078
:103A20006FF02F022878A0F13001092915D809EB91
:103A3000890102EB410144F0020400EB01096D1C15
:103A4000F0E758F8041B5FEA010903D544F4005479
:103A5000C9F1000944F002046D1C28782E2817D102
:103A600015F8010F44F004042A280ED06FF02F023D
:103A70002878A0F1300109290AD80AEB8A0102EB63
:103A8000410100EB010A6D1CF2E758F804AB6D1C14
:103A900028786C280FD006DC4C2817D068280DD069
:103AA0006A2814D104E0742810D07A280FD10DE0D0
:103AB00044F400140AE044F4801401E044F4401497
:103AC0006978814202D104F580146D1C6D1C287840
:103AD000692865D006DC00288DD0632827D06428AB
:103AE00006D15DE06E2808D073282AD0752877D0DB
:103AF000DDE90D129047761CE0E0C4F30250022885
:103B000009D003280DD0D8F8001004280DD00E607D
:103B100008F10408D2E0D8F80010F217C1E90062F9
:103B2000F6E7D8F800100E80F2E70E70F0E718F80C
:103B3000041B8DF8001000208DF80100EB460120D9
:103B400003E058F804BB4FF0FF3061074FF0000767
:103B500001D40AE07F1C57450DDA8742FADB1BF8D7
:103B600007100029F6D106E07F1C8742FCDB1BF81A
:103B700007100029F8D1DDE90D23A9EB07008146E4
:103B8000214600F0B1F83044C61904E0DDE90D1219
:103B90001BF8010B90477F1EF8D22146484688E06B
:103BA00058F8040BC4F302514FF00A0B032900D15B
:103BB00000B2042900D140B2002802DA40422D218F
:103BC00002E0210505D52B218DF82410012104E008
:103BD00006E0E10710D02021F6E708AF089113E0D6
:103BE00058F8040BC4F302514FF00A0B032900D11B
:103BF00080B2042900D1C0B20021EEE75946FCF79B
:103C0000FCFA303107F8011D0028F7D1ADEB0700B1
:103C100000F1200B600702D524F4803401E04FF05E
:103C2000010ADA4502DDAAEB0B0000E00020824623
:103C300000EB0B0108980144A9EB01000A90E00396
:103C400006D4DDE90D2321460A9800F04DF806441C
:103C50004FF0000908E009A911F80900DDE90D128B
:103C6000904709F10109761C08998945F3DBE003C7
:103C70000CD5DDE90D2321460A9800F035F80644FD
:103C800004E0DDE90D1230209047761CBAF1000106
:103C9000AAF1010AF5DC05E0DDE90D1217F8010BC8
:103CA0009047761CBBF10001ABF1010BF4DC0A98E4
:103CB0002146DDE90D2300F005F806446D1C97E66A
:103CC000092801002DE9F041044600251E4617464B
:103CD000880404D405E039462020B0476D1C641EDA
:103CE000F9D52846BDE8F0812DE9F04104460025CC
:103CF0001E469046C80301D5302700E020278804DF
:103D000004D505E041463846B0476D1C641EF9D520
:103D10002846BDE8F081000008B54FF47A7000F045
:103D200027FD5C210EA0FCF75DFA28B15C210CA0F8
:103D3000FCF758FA401C00E009A004468122214605
:103D40000DA0FFF70BFE00F0B7FE009007E0FCF7B8
:103D500033FB00BF0621684600F064FE00BFF6E7B3
:103D60002E2E5C4170705C7461736B5C4170705F8F
:103D70005461736B2E6300005B253135733A253433
:103D8000645D202D2D20CDA8D1B6C8CECEF1BFAA1E
:103D9000CABCB5F7B6C80D0A0000000008B55C2122
:103DA0000EA0FCF71FFA28B15C210CA0FCF71AFA50
:103DB000401C00E009A00446D92221460DA0FFF7CF
:103DC000CDFD00F079FE009007E0FCF777FE00BF24
:103DD0000721684600F026FE00BFF6E72E2E5C4164
:103DE00070705C7461736B5C4170705F5461736B75
:103DF0002E6300005B253135733A2534645D202D38
:103E00002D20CFD4CABEC8CECEF1BFAACABCB5F74A
:103E1000B6C80D0A0000000013B50C464FF47A73C3
:103E2000012269460248FEF779FD00981CBD00009A
:103E30006801002008B54FF4FA7000F099FC5C218D
:103E40000EA0FCF7CFF928B15C210CA0FCF7CAF951
:103E5000401C00E009A00446CC2221460DA0FFF73B
:103E60007DFD00F029FE009007E0FCF7ADFC00BFEF
:103E70000A21684600F0D6FD00BFF6E72E2E5C4111
:103E800070705C7461736B5C4170705F5461736BD4
:103E90002E6300005B253135733A2534645D202D97
:103EA0002D20D2A1B8CBC9A8C3E8C8CECEF1BFAAF5
:103EB000CABCB5F7B6C80D0A0000000008B54FF43B
:103EC000967000F055FC5C210EA0FCF78BF928B130
:103ED0005C210CA0FCF786F9401C00E009A0044618
:103EE0009E2221460DA0FFF739FD00F0E5FD009070
:103EF00007E0FCF729FD00BF3221684600F092FD83
:103F000000BFF6E72E2E5C4170705C7461736B5CD1
:103F10004170705F5461736B2E6300005B25313517
:103F2000733A2534645D202D2D20B0B4BCFCC9A8A3
:103F3000C3E8C8CECEF1BFAACABCB5F7B6C80D0A51
:103F400000000000FDF768FDFFF7C8FBFEF7EEFF7D
:103F5000FEF7DAFFFFF758F8FFF778F8FEF784FF6F
:103F6000FCF74CFF00BFFEE710B50246012000E061
:103F700050430B1EA1F10104E1B2F9D110BD0000C4
:103F80002DE9F04105460E46264807682648006898
:103F9000001D00F04FFB50B92348006890F82C102A
:103FA0000120884021490968814320480160681C3C
:103FB000D8B9D6B11E4948681B49096888601A49B2
:103FC00082680968CA6018490968091D82685160D9
:103FD00015490968091D8160154A134909684A6134
:103FE00011460968491C11601AE07C190E480068E6
:103FF0004460BC4207D20C480168091D0D480068A6
:1040000000F03CFB0CE008480168091D0A48006804
:1040100000F034FB09480068844201D2074804607C
:10402000BDE8F0814400002030000020480000205E
:104030009834002038000020340000206000002068
:1040400010B5044600F040FB31480068401C304980
:1040500008603048006840B92E480460084600688F
:1040600001280DD100F020F90AE02B48006838B98A
:1040700028480068C06AE16A884201D8254804607F
:1040800026480068401C25490860084600686064AE
:1040900094F82C10012088402149096808432049E0
:1040A0000860E16A01EB81011E4A02EB8101486868
:1040B000A0608268E260211D826851608160E16ACF
:1040C00001EB8101174A02EB81026261E16A01EBB7
:1040D0008101144A52F82110491CE26A02EB820263
:1040E000104B43F8221000F001FB0B48006868B148
:1040F00008480068C06AE16A884207D24FF08050E1
:1041000009490860BFF34F8FBFF36F8F10BD0000E8
:1041100040000020300000204C0000205C00002007
:1041200048000020C831002004ED00E010B516E082
:1041300000F0CAFA0C48C068C468201D00F07AFA82
:104140000A480068401E0949086009480068401E86
:104150000749086000F0CAFA204600F00BF804484E
:1041600000680028E4D110BD843400204000002005
:104170003C00002010B50446206B00F0C7FA204632
:1041800000F0C4FA10BD000030B54FF4405315489C
:1041900000F007042CB1C01D20F00700114C041BD7
:1041A0001B1B0246104C226000240F4D6C60D0187F
:1041B000083820F007000D4C206000240B4D2D68BE
:1041C0006C600A4D2D682C601146441A4C60074CF7
:1041D00024680C60064D4C682C60064D4C682C60C1
:1041E00030BD0000C8010020140000201C00002089
:1041F000240000202000002000BFFFF797FF0648A2
:1042000000680128F9D94FF0805004490860BFF3D5
:104210004F8FBFF36F8FF0E7C831002004ED00E04F
:104220002DE9F05F81460E4690469A460A9F0C9C07
:104230004FEA8801A522206BFBF7C2FFA8F101001D
:10424000216B01EB800B2BF0070B7EB1002507E003
:10425000715D04F134004155705D00B902E06D1CE0
:10426000102DF5D300BF002143200155202F00D38E
:104270001F27E762E764201D00F0FDF904F1180034
:1042800000F0F9F92461C7F12000A0616462524690
:104290004946584600F006F920600B9808B10B9883
:1042A0000460BDE8F09F000010B5002407E004EBB7
:1042B00084010F4A02EB810000F0D0F9641C202C2D
:1042C000F5D30C4800F0CAF90B4800F0C7F90B48C9
:1042D00000F0C4F90A4800F0C1F90A4800F0BEF93C
:1042E00004480949086004480849086010BD0000F6
:1042F000C8310020483400205C3400207034002095
:10430000843400209834002034000020380000203D
:1043100010B50146164800E0006803688B42FBD3E5
:104320000246436813448B4204D143684C682344DB
:10433000436001460A464B6813440468A34211D106
:104340000C4C03682468A34208D04B680468646876
:1043500023444B6003681B680B6005E0054B1B683A
:104360000B6001E003680B60884200D0016010BD63
:10437000140000201C00002009480068006808B9EB
:10438000012000E0002020B14FF0FF300549086017
:1043900005E003480068C06800680249086070478B
:1043A000340000206000002000BF502080F31188FE
:1043B000BFF34F8FBFF36F8F00BF00BFFEE700005A
:1043C0002DE9F04705464FF0000900F08BFA304820
:1043D000006808B9FFF7D8FE75B105F00700C0F115
:1043E0001008C8F1FF30A84201D2012000E00020EF
:1043F00008B9454400E00025012000EBE5700028E5
:1044000041D0002D3FD02348006885423BD8224E42
:104410003046046801E0264624686068A84202D25B
:1044200020680028F7D11A48006884422BD03068F1
:1044300000F10809206830606068401B102807D927
:1044400067196068401B786065603846FFF760FF59
:10445000104960680968081A0E4908600846006833
:104460000E490968884203D20A4800680B4908606F
:10447000606840F0004060600020206008480068EC
:10448000401C0749086000F0E5FB4846BDE8F0879E
:104490001C00002020000020140000202400002028
:1044A00028000020001F4FF080730360001F21F0E0
:1044B00001030360001F034B0360143802602038BF
:1044C00070470000A94300087CB505465C2129A07F
:1044D000FBF788FE28B15C2126A0FBF783FE401C79
:1044E00000E024A004465522214628A0FFF736FA12
:1044F0003148082100234A01CDE900102FA134489A
:1045000000F05CFA3348072100234FF48072CDE9B4
:10451000001031A1334800F051FA3348072100233D
:104520004FF48072CDE9001030A1344800F046FA13
:104530003348072100234FF48072CDE9001031A1E8
:10454000344800F03BFA002000F02CF95C2109A06F
:10455000FBF748FE28B15C2106A0FBF743FE401C98
:1045600000E004A00446792221462BA0FFF7F6F9CB
:104570007CBD00002E2E5C4170705C7461736B5CBE
:104580004170705F5461736B2E6300005B253135A1
:10459000733A2534645D202D2D20C6F4B6AFC8CE05
:1045A000CEF1BFAACABCD6B4D0D0A3BABFAACABCE7
:1045B000B5F7B6C80D0A000074000020636F6D6D7A
:1045C000756E69636174696F6E5F5461736B00002F
:1045D000193D0008780000206B65795F5461736BAA
:1045E00000000000BD3E00087C0000206A6F797367
:1045F0007469636B5F5461736B000000353E0008A3
:1046000080000020646961706C61795F5461736B34
:10461000000000009D3D00085B253135733A2534CC
:10462000645D202D2D20B2BBBBE1D6B4D0D00D0AE5
:104630000000000001460A69D1E901309860D1E923
:10464000010358605068884201D18868506000209A
:1046500008611068401E10601068704700F1080182
:1046600041604FF0FF31816000F10801C1600161DC
:1046700000210160704700210161704710B50246BA
:104680000B685C1C0CB9106907E002F1080000E03F
:104690004068446824689C42FAD944684C604C687D
:1046A000A160886041600A611468641C146010BDD8
:1046B00042684A6093688B609368596091600861B2
:1046C00003685B1C0360704700BF502080F31188B3
:1046D000BFF34F8FBFF36F8F00BF03480068401CCC
:1046E000014908607047000010000020064800687B
:1046F000401E054908600846006820B9002080F384
:10470000118800BF00BF70471000002070B506463A
:104710003546E6B1083D2C466068C00FB8B1206848
:10472000A8B9606820F00040606000F0DBF808493C
:10473000606809680844064908602046FFF7E8FDFC
:1047400004480068401C0349086000F083FA70BD0B
:10475000200000202C00002000204FF0E021086104
:104760008861024848610720086170473F190100CD
:1047700070B50446002544B100F0B4F8002120468D
:10478000FFF7FEFB00F066FA05463DB94FF080509A
:1047900003490860BFF34F8FBFF36F8F70BD0000F8
:1047A00004ED00E070B50546FFF78EFF15B9294806
:1047B000006800E028460446201DFFF73BFF78B95B
:1047C000E06A00EB8000244951F8200040B994F8D9
:1047D0002C10012088402149096881431F4801604D
:1047E000A06A18B104F11800FFF724FF1C48006804
:1047F000401C1B49086017480068844209D1211DEC
:104800001848FFF755FF18480068401C1649086013
:1048100006E016480068401E14490860FFF7ACFD2A
:10482000FFF764FF0B480068844202D02046FFF780
:10483000A1FC0F48006858B106480068844207D1BF
:104840004FF080500B490860BFF34F8FBFF36F8F5D
:1048500070BD000030000020C8310020480000205A
:104860005C000020843400203C0000204000002038
:104870004C00002004ED00E01CB5124800210B465E
:104880008022CDE9001010A1114800F097F80446ED
:10489000012C14D100BF502080F31188BFF34F8F3B
:1048A000BFF36F8F00BF4FF0FF300A49086001204F
:1048B0000949086000200949086000F04BF80848E1
:1048C00000681CBD6400002049444C450000000005
:1048D000F9410008600000204C0000204400002046
:1048E0006800002002480068401C014908607047C9
:1048F0006C0000201248006818B1012011490860BE
:104900001DE000200F4908600F480068B0FA80F0F1
:10491000C0F11F0101EB81020C4B03EB82004268E6
:104920005268426000F108024368934202D1426833
:10493000526842604268D268054B1A6000BF7047F7
:104940006C0000205400002048000020C8310020E6
:104950003000002010B50A48006840F47000084993
:1049600008600846006840F070400860FFF7F4FEF9
:10497000002004490860FBF7D7FB002010BD0000B1
:1049800020ED00E01000002010B500BF502080F3A3
:104990001188BFF34F8FBFF36F8F00BF00F092F805
:1049A00018B14FF080500449086000BF002080F328
:1049B000118800BF10BD000004ED00E02DE9FF4F9D
:1049C00085B0804689461746DDE912ABB800FFF78F
:1049D000F7FC064676B17020FFF7F2FC04462CB1D6
:1049E00070212046FBF7F3FB266304E03046FFF717
:1049F0008DFE00E000247CB10020CDE900ABCDE9C4
:104A000002403A4649464046089BFFF709FC2046CB
:104A1000FFF716FB012501E04FF0FF35284609B0EE
:104A2000BDE8F08F2DE9F047044688464FF00009B5
:104A3000FFF758FF16480668206800EB0805206855
:104A4000B04207D92068A8420BD9B54209D94FF026
:104A5000010906E02068A84201D8B54201D94FF00B
:104A600001092560B9F1000F03D0A81B0021FFF751
:104A700087FA00F0EFF807463FB94FF0805005493C
:104A80000860BFF34F8FBFF36F8F4846BDE8F087D4
:104A90004400002004ED00E00549096809B901203F
:104AA00005E00449096809B9022000E000207047C8
:104AB0004C0000206C00002001490868704700008D
:104AC000440000202DE9F0410027574800680028E5
:104AD0007ED156480068451C544805608DB954483D
:104AE000D0F8008053480068514908605148C0F828
:104AF000008051480068401C4F490860FFF73CFCAB
:104B000000BF4E480068854276D300BF4848006821
:104B1000006808B9012000E0002020B14FF0FF300C
:104B20004649086067E042480068C068C468666833
:104B3000B54202D2414806605DE06069D4E90212E4
:104B40008A60D4E902214A60211D42688A4201D16B
:104B5000E1684160002262610168491E0160A06A4B
:104B600098B1A06AD4E907128A60D4E907214A60A3
:104B700004F1180142688A4201D1216A4160002291
:104B8000A2620168491E016000BF94F82C10012048
:104B900088402B490968084329490860E16A01EB0C
:104BA0008101284A02EB81014868A0608268E260C6
:104BB000211D826851608160E16A01EB8101214A17
:104BC00002EB81026261E16A01EB81011D4A00E0B2
:104BD00022E052F82110491CE26A02EB8202194BD2
:104BE00043F822101849E06A0968C96A88428DD9D9
:104BF00001278BE700E000BF13480068C06A00EBA4
:104C00008000104951F82000012800D901270F48E1
:104C1000006800B1012704E00D480068401C0C4901
:104C200008603846BDE8F0816C0000204400002098
:104C300034000020380000205800002060000020D0
:104C400048000020C831002030000020540000201F
:104C50005000002070B500240026FFF735FD4B48BA
:104C60000068401E494908600846006800287DD158
:104C700047480068002879D05BE04648C068C468AF
:104C8000A06AD4E907128A60D4E907214A6004F1D6
:104C9000180142688A4201D1216A41600022A26261
:104CA0000168491E01606069D4E902128A60D4E992
:104CB00002214A60211D42688A4201D1E1684160B7
:104CC000002262610168491E016094F82C100120E5
:104CD00088403149096808432F490860E16A01EBBF
:104CE00081012E4A02EB81014868A0608268E2607F
:104CF000211D826851608160E16A01EB8101274AD0
:104D000002EB81026261E16A01EB8101234A52F800
:104D10002110491CE26A02EB8202204B43F8221068
:104D20001F49E06A0968C96A884202D301201D4907
:104D300008601848006808B9012000E00020002839
:104D40009BD00CB1FFF718FB1748056865B100BF91
:104D5000FFF7B8FE10B10120124908606D1E002D4A
:104D6000F6D10020104908600E4800E009E0006814
:104D700038B1012630070D490860BFF34F8FBFF3EC
:104D80006F8FFFF7B3FC304670BD00006C00002051
:104D9000400000207034002048000020C83100206E
:104DA00030000020540000205000002004ED00E0FE
:104DB00002030405060708090A0B0C0D0E0F10105C
:104DC000010202030405060708090A0B0C0D0E0F69
:104DD00010100102000000000000000001020304A6
:104DE000060708090000000001020304000000009B
:104DF0000000000000000000000000003F40000034
:104E000000000000000030004000300040000000C2
:104E100009000BC03D000BC03D00090018C0244034
:104E20007FE0224031800000180024C01B000D806C
:104E30003240018003801C4027401C800740004016
:104E400010006000000000000000000000000000F2
:104E500000001F80204040200000402020401F8094
:104E600000000000090006001F8006000900000085
:104E7000040004003F8004000400000000100060F3
:104E80000000000000000000040004000400040012
:104E900004000000000000400000000000000000CE
:104EA000002001C006003800400000001F802040A4
:104EB000204020401F800000000010403FC0004004
:104EC0000000000018C0214022402440184000008B
:104ED00010802040244024401B80000002000D0070
:104EE00011003FC0014000003C8024402440244089
:104EF000238000001F8024402440344003800000B1
:104F00003000200027C03800200000001B80244013
:104F1000244024401B8000001C0022C0224022406C
:104F20001F8000000000000008400000000000009A
:104F30000000000004600000000000000000040009
:104F40000A00110020804040090009000900090002
:104F50000900000000004040208011000A00040009
:104F60001800200023402400180000001F8020406B
:104F7000274029401F400000004007C039000F00B3
:104F800001C0004020403FC0244024401B8000005E
:104F90001F802040204020403080000020403FC043
:104FA000204020401F80000020403FC024402E4071
:104FB00030C0000020403FC024402E0030000000E0
:104FC0000F001080204022403380020020403FC06C
:104FD000040004003FC02040204020403FC020404B
:104FE000204000000060202020203FC02000200042
:104FF00020403FC024400B0030C0204020403FC034
:1050000020400040004000C03FC03C0003C03C00C6
:105010003FC0000020403FC00C4023003FC02000A4
:105020001F802040204020401F80000020403FC0C3
:1050300024402400180000001F802140214020E06F
:105040001FA0000020403FC02440260019C000409F
:1050500018C024402440224031800000300020400D
:105060003FC020403000000020003F800040004052
:105070003F80200020003E0001C0070038002000D3
:10508000380007C03C0007C038000000204039C08D
:10509000060039C0204000002000384007C03840DA
:1050A00020000000304021C02640384020C00000D1
:1050B000000000007FE04020402000000000700061
:1050C0000C000380004000000000402040207FE0F2
:1050D0000000000000002000400020000000000050
:1050E0000010001000100010001000100000000060
:1050F0004000000000000000000002800540054064
:1051000003C0004020003FC0044004400380000072
:1051100000000380044004400640000000000380BB
:10512000044024403FC0004000000380054005408B
:1051300003400000000004401FC024402440200021
:10514000000002E0055005500650042020403FC0FA
:105150000440040003C000400000044027C0004099
:105160000000000000100010041027E00000000004
:1051700020403FC00140070004C0044020402040C0
:105180003FC000400040000007C0040007C004000A
:1051900003C00000044007C00440040003C00040F6
:1051A000000003800440044003800000041007F066
:1051B00004500440038000000000038004400450B9
:1051C00007F00010044007C0024004000400000083
:1051D000000006400540054004C000000000040037
:1051E0001F8004400040000004000780004004408D
:1051F00007C000400400070004C00180060004004E
:10520000060001C0070001C006000000044006C0FF
:10521000010006C0044000000410071004E00180F3
:10522000060004000000044005C0064004400000E1
:105230000000000004007BE04020000000000000AF
:105240000000FFF000000000000040207BE00400B0
:1052500000000000400080004000200020004000CE
:10526000000000000000000000000000000000003E
:105270000000000000001FCC000C00000000000037
:1052800000000800300060000800300060000000EE
:10529000022003FC1E20022003FC1E20022000002E
:1052A00000000E1811043FFF10840C78000000006D
:1052B0000F0010840F3800C00778188400780000B1
:1052C00000780F8410C411240E9800E400840008B4
:1052D00008006800700000000000000000000000EE
:1052E00000000000000007E0181820044002000041
:1052F000000040022004181807E000000000000031
:105300000240024001800FF0018002400240000094
:105310000080008000800FF8008000800080000086
:105320000001000D000E0000000000000000000061
:1053300000000080008000800080008000800080ED
:105340000000000C000C0000000000000000000045
:105350000000000600180060018006001800200010
:10536000000007F0080810041004080807F0000007
:105370000000080408041FFC0004000400000000F2
:1053800000000E0C10141024104411840E0C0000A8
:1053900000000C1810041104110412880C70000095
:1053A000000000E00320042408241FFC0024000067
:1053B00000001F9810841104110410881070000060
:1053C000000007F00888110411041888007000001C
:1053D00000001C00100010FC13001C001000000056
:1053E00000000E3811441084108411440E3800005F
:1053F00000000700088C10441044088807F00000E3
:10540000000000000000030C030C0000000000007E
:105410000000000000010106000000000000000084
:105420000000008001400220041008081004000061
:10543000022002200220022002200220022000007E
:105440000000100408080410022001400080000041
:1054500000000E001200100C106C10800F000000F5
:1054600003E00C1813E4142417C4082807D0000024
:105470000004003C03C41C40074000E4001C00047E
:1054800010041FFC1104110411040E8800700000A8
:1054900003E00C1810041004100410081C10000085
:1054A00010041FFC100410041004080807F000008A
:1054B00010041FFC1104110417C410040818000084
:1054C00010041FFC1104110017C010000800000098
:1054D00003E00C181004100410441C780040000075
:1054E00010041FFC10840080008010841FFC100436
:1054F0000000100410041FFC100410040000000041
:1055000000030001100110011FFE10001000000038
:1055100010041FFC110403801464181C1004000004
:1055200010041FFC1004000400040004000C000020
:1055300010041FFC1F0000FC1F001FFC10040000D3
:1055400010041FFC0C04030000E010181FFC1000E6
:1055500007F00808100410041004080807F0000001
:1055600010041FFC10841080108010800F000000B9
:1055700007F0081810241024101C080A07F2000075
:1055800010041FFC1104110011C011300E0C000496
:1055900000000E1C11041084108410441C380000FC
:1055A0001800100010041FFC100410001800000068
:1055B00010001FF810040004000410041FF810006D
:1055C00010001E0011E0001C007013801C00100071
:1055D0001FC0103C00E01F0000E0103C1FC0000096
:1055E0001004180C163401C001C01634180C100435
:1055F00010001C00130400FC13041C001000000029
:105600000804101C1064108413041C0410180000FB
:105610000000000000007FFE400240024002000047
:10562000000030000C0003800060001C000300003C
:1056300000004002400240027FFE00000000000027
:10564000000000002000400040004000200000005A
:105650000001000100010001000100010001000142
:10566000000040004000200000000000000000009A
:1056700000000098012401440144014400FC00049E
:1056800010001FFC00880104010400880070000065
:10569000000000700088010401040104008800007B
:1056A0000000007000880104010411081FFC0004C0
:1056B000000000F8014401440144014400C8000016
:1056C0000000010401040FFC110411041100180072
:1056D000000000D601290129012901C901060000A5
:1056E00010041FFC008401000100010400FC000400
:1056F00000000104190419FC00040004000000006B
:105700000000000300010101190119FE0000000062
:1057100010041FFC0024004001B4010C010400002F
:105720000000100410041FFC00040004000000002E
:10573000010401FC0104010001FC0104010000FC62
:10574000010401FC008401000100010400FC0004CC
:10575000000000F8010401040104010400F8000045
:10576000010101FF008501040104008800700000B0
:1057700000000070008801040104010501FF000120
:105780000104010401FC0084010401000180000007
:10579000000000CC01240124012401240198000010
:1057A00000000100010007F80104010400000000EE
:1057B000010001F8000400040004010801FC0004D9
:1057C000010001800170000C0010016001800100E7
:1057D00001F0010C003001C00030010C01F00100AB
:1057E00000000104018C00740170018C01040000B0
:1057F000010101810171000E0018016001800100AA
:1058000000000184010C013401440184010C0000FA
:10581000000000000000000001003EFC40024002C9
:105820000000000000000000FFFF0000000000007A
:105830000000400240023EFC0100000000000000A9
:105840000000600080008000400040002000200038
:105850000000000000000000000000000000000048
:105860000000000000000000001000607F80490080
:10587000490049004900491049107FF0000000002C
:105880000210FBA0AA90AEF0AA80FBA002100000BC
:1058900011102220CCC0000044202240440057F0C8
:1058A00055405540FD405540555057F044000000CC
:1058B00000107FE04840448043004480584040004E
:1058C0007FC0002000F00000000000000000000089
:1058D00000000000000000000000000000000000C8
:1058E000000000000000108009000600060009000A
:1058F00010800000000000000000003000000000E8
:105900000000000000000000000000000000000097
:1059100000000030000000F0000000000000000067
:10592000000000000000000000000030000000F057
:10593000000003F000000000000000000000000074
:1059400000000030000000F0000003F000000FF045
:10595000000000000000000000000030000000F027
:10596000000003F000000FF000003FF00000000016
:105970000000000000000000000000000000000027
:1059800000000000000000007FE0000000000000B8
:105990000000000000000000000000000000000007
:1059A0007FE07FE000000000000000000000000039
:1059B00000000000000000007FE07FE07FE00000CA
:1059C00000000000000000000000000000000000D7
:1059D0007FE07FE07FE07FE000000000000000004B
:1059E00000000000000000007FE07FE07FE07FE03B
:1059F0007FE0000000000000000000000000000048
:105A00007FE07FE07FE07FE07FE07FE0000000005C
:105A100000000000000000007FE07FE07FE07FE00A
:105A20007FE07FE07FE00000000000000000000059
:105A30007FE07FE07FE07FE07FE07FE07FE07FE06E
:105A400000000000000000007FE07FE07FE07FE0DA
:105A50007FE07FE07FE07FE07FE00000000000006B
:105A60007FE07FE07FE07FE07FE07FE07FE07FE03E
:105A70007FE07FE0000000007FE07FE07FE07FE0EC
:105A80007FE07FE07FE07FE07FE07FE07FE000007D
:105A90007FE07FE07FE07FE07FE07FE07FE07FE00E
:105AA0007FE07FE07FE07FE0000000004C002A0004
:105AB00009E02820282009E02A004C00000000000E
:105AC00000004020264015800DE0162016200DE035
:105AD00015802640402000002100A2006FF0340015
